{
	"contracts/Armazenamento.sol": {
		"Armazenamento": {
			"abi": [
				{
					"inputs": [
						{
							"internalType": "string",
							"name": "texto",
							"type": "string"
						}
					],
					"name": "guardar",
					"outputs": [],
					"stateMutability": "nonpayable",
					"type": "function"
				},
				{
					"inputs": [],
					"name": "recuperar",
					"outputs": [
						{
							"internalType": "string",
							"name": "",
							"type": "string"
						}
					],
					"stateMutability": "view",
					"type": "function"
				}
			],
			"devdoc": {
				"kind": "dev",
				"methods": {},
				"version": 1
			},
			"evm": {
				"assembly": "    /* \"contracts/Armazenamento.sol\":145:439  contract Armazenamento is ArmazenamentoInterface, ControleAcessoDono {... */\n  mstore(0x40, 0x80)\n    /* \"contracts/Armazenamento.sol\":220:242  string armazenado = \"\" */\n  mload(0x40)\n  dup1\n  0x20\n  add\n  0x40\n  mstore\n  dup1\n  0x00\n  dup2\n  mstore\n  pop\n  0x01\n  swap1\n  dup2\n  tag_1\n  swap2\n  swap1\n  tag_2\n  jump\t// in\ntag_1:\n  pop\n    /* \"contracts/Armazenamento.sol\":145:439  contract Armazenamento is ArmazenamentoInterface, ControleAcessoDono {... */\n  callvalue\n  dup1\n  iszero\n  tag_3\n  jumpi\n  0x00\n  dup1\n  revert\ntag_3:\n  pop\n    /* \"contracts/ControleAcessoDono.sol\":163:173  msg.sender */\n  caller\n    /* \"contracts/ControleAcessoDono.sol\":156:160  dono */\n  0x00\n  dup1\n    /* \"contracts/ControleAcessoDono.sol\":156:173  dono = msg.sender */\n  0x0100\n  exp\n  dup2\n  sload\n  dup2\n  0xffffffffffffffffffffffffffffffffffffffff\n  mul\n  not\n  and\n  swap1\n  dup4\n  0xffffffffffffffffffffffffffffffffffffffff\n  and\n  mul\n  or\n  swap1\n  sstore\n  pop\n    /* \"contracts/Armazenamento.sol\":145:439  contract Armazenamento is ArmazenamentoInterface, ControleAcessoDono {... */\n  jump(tag_6)\n    /* \"#utility.yul\":7:106   */\ntag_7:\n    /* \"#utility.yul\":59:65   */\n  0x00\n    /* \"#utility.yul\":93:98   */\n  dup2\n    /* \"#utility.yul\":87:99   */\n  mload\n    /* \"#utility.yul\":77:99   */\n  swap1\n  pop\n    /* \"#utility.yul\":7:106   */\n  swap2\n  swap1\n  pop\n  jump\t// out\n    /* \"#utility.yul\":112:292   */\ntag_8:\n    /* \"#utility.yul\":160:237   */\n  0x4e487b7100000000000000000000000000000000000000000000000000000000\n    /* \"#utility.yul\":157:158   */\n  0x00\n    /* \"#utility.yul\":150:238   */\n  mstore\n    /* \"#utility.yul\":257:261   */\n  0x41\n    /* \"#utility.yul\":254:255   */\n  0x04\n    /* \"#utility.yul\":247:262   */\n  mstore\n    /* \"#utility.yul\":281:285   */\n  0x24\n    /* \"#utility.yul\":278:279   */\n  0x00\n    /* \"#utility.yul\":271:286   */\n  revert\n    /* \"#utility.yul\":298:478   */\ntag_9:\n    /* \"#utility.yul\":346:423   */\n  0x4e487b7100000000000000000000000000000000000000000000000000000000\n    /* \"#utility.yul\":343:344   */\n  0x00\n    /* \"#utility.yul\":336:424   */\n  mstore\n    /* \"#utility.yul\":443:447   */\n  0x22\n    /* \"#utility.yul\":440:441   */\n  0x04\n    /* \"#utility.yul\":433:448   */\n  mstore\n    /* \"#utility.yul\":467:471   */\n  0x24\n    /* \"#utility.yul\":464:465   */\n  0x00\n    /* \"#utility.yul\":457:472   */\n  revert\n    /* \"#utility.yul\":484:804   */\ntag_10:\n    /* \"#utility.yul\":528:534   */\n  0x00\n    /* \"#utility.yul\":565:566   */\n  0x02\n    /* \"#utility.yul\":559:563   */\n  dup3\n    /* \"#utility.yul\":555:567   */\n  div\n    /* \"#utility.yul\":545:567   */\n  swap1\n  pop\n    /* \"#utility.yul\":612:613   */\n  0x01\n    /* \"#utility.yul\":606:610   */\n  dup3\n    /* \"#utility.yul\":602:614   */\n  and\n    /* \"#utility.yul\":633:651   */\n  dup1\n    /* \"#utility.yul\":623:704   */\n  tag_32\n  jumpi\n    /* \"#utility.yul\":689:693   */\n  0x7f\n    /* \"#utility.yul\":681:687   */\n  dup3\n    /* \"#utility.yul\":677:694   */\n  and\n    /* \"#utility.yul\":667:694   */\n  swap2\n  pop\n    /* \"#utility.yul\":623:704   */\ntag_32:\n    /* \"#utility.yul\":751:753   */\n  0x20\n    /* \"#utility.yul\":743:749   */\n  dup3\n    /* \"#utility.yul\":740:754   */\n  lt\n    /* \"#utility.yul\":720:738   */\n  dup2\n    /* \"#utility.yul\":717:755   */\n  sub\n    /* \"#utility.yul\":714:798   */\n  tag_33\n  jumpi\n    /* \"#utility.yul\":770:788   */\n  tag_34\n  tag_9\n  jump\t// in\ntag_34:\n    /* \"#utility.yul\":714:798   */\ntag_33:\n    /* \"#utility.yul\":535:804   */\n  pop\n    /* \"#utility.yul\":484:804   */\n  swap2\n  swap1\n  pop\n  jump\t// out\n    /* \"#utility.yul\":810:951   */\ntag_11:\n    /* \"#utility.yul\":859:863   */\n  0x00\n    /* \"#utility.yul\":882:885   */\n  dup2\n    /* \"#utility.yul\":874:885   */\n  swap1\n  pop\n    /* \"#utility.yul\":905:908   */\n  dup2\n    /* \"#utility.yul\":902:903   */\n  0x00\n    /* \"#utility.yul\":895:909   */\n  mstore\n    /* \"#utility.yul\":939:943   */\n  0x20\n    /* \"#utility.yul\":936:937   */\n  0x00\n    /* \"#utility.yul\":926:944   */\n  keccak256\n    /* \"#utility.yul\":918:944   */\n  swap1\n  pop\n    /* \"#utility.yul\":810:951   */\n  swap2\n  swap1\n  pop\n  jump\t// out\n    /* \"#utility.yul\":957:1050   */\ntag_12:\n    /* \"#utility.yul\":994:1000   */\n  0x00\n    /* \"#utility.yul\":1041:1043   */\n  0x20\n    /* \"#utility.yul\":1036:1038   */\n  0x1f\n    /* \"#utility.yul\":1029:1034   */\n  dup4\n    /* \"#utility.yul\":1025:1039   */\n  add\n    /* \"#utility.yul\":1021:1044   */\n  div\n    /* \"#utility.yul\":1011:1044   */\n  swap1\n  pop\n    /* \"#utility.yul\":957:1050   */\n  swap2\n  swap1\n  pop\n  jump\t// out\n    /* \"#utility.yul\":1056:1163   */\ntag_13:\n    /* \"#utility.yul\":1100:1108   */\n  0x00\n    /* \"#utility.yul\":1150:1155   */\n  dup3\n    /* \"#utility.yul\":1144:1148   */\n  dup3\n    /* \"#utility.yul\":1140:1156   */\n  shl\n    /* \"#utility.yul\":1119:1156   */\n  swap1\n  pop\n    /* \"#utility.yul\":1056:1163   */\n  swap3\n  swap2\n  pop\n  pop\n  jump\t// out\n    /* \"#utility.yul\":1169:1562   */\ntag_14:\n    /* \"#utility.yul\":1238:1244   */\n  0x00\n    /* \"#utility.yul\":1288:1289   */\n  0x08\n    /* \"#utility.yul\":1276:1286   */\n  dup4\n    /* \"#utility.yul\":1272:1290   */\n  mul\n    /* \"#utility.yul\":1311:1408   */\n  tag_39\n    /* \"#utility.yul\":1341:1407   */\n  0xffffffffffffffffffffffffffffffffffffffffffffffffffffffffffffffff\n    /* \"#utility.yul\":1330:1339   */\n  dup3\n    /* \"#utility.yul\":1311:1408   */\n  tag_13\n  jump\t// in\ntag_39:\n    /* \"#utility.yul\":1429:1468   */\n  tag_40\n    /* \"#utility.yul\":1459:1467   */\n  dup7\n    /* \"#utility.yul\":1448:1457   */\n  dup4\n    /* \"#utility.yul\":1429:1468   */\n  tag_13\n  jump\t// in\ntag_40:\n    /* \"#utility.yul\":1417:1468   */\n  swap6\n  pop\n    /* \"#utility.yul\":1501:1505   */\n  dup1\n    /* \"#utility.yul\":1497:1506   */\n  not\n    /* \"#utility.yul\":1490:1495   */\n  dup5\n    /* \"#utility.yul\":1486:1507   */\n  and\n    /* \"#utility.yul\":1477:1507   */\n  swap4\n  pop\n    /* \"#utility.yul\":1550:1554   */\n  dup1\n    /* \"#utility.yul\":1540:1548   */\n  dup7\n    /* \"#utility.yul\":1536:1555   */\n  and\n    /* \"#utility.yul\":1529:1534   */\n  dup5\n    /* \"#utility.yul\":1526:1556   */\n  or\n    /* \"#utility.yul\":1516:1556   */\n  swap3\n  pop\n    /* \"#utility.yul\":1245:1562   */\n  pop\n  pop\n    /* \"#utility.yul\":1169:1562   */\n  swap4\n  swap3\n  pop\n  pop\n  pop\n  jump\t// out\n    /* \"#utility.yul\":1568:1645   */\ntag_15:\n    /* \"#utility.yul\":1605:1612   */\n  0x00\n    /* \"#utility.yul\":1634:1639   */\n  dup2\n    /* \"#utility.yul\":1623:1639   */\n  swap1\n  pop\n    /* \"#utility.yul\":1568:1645   */\n  swap2\n  swap1\n  pop\n  jump\t// out\n    /* \"#utility.yul\":1651:1711   */\ntag_16:\n    /* \"#utility.yul\":1679:1682   */\n  0x00\n    /* \"#utility.yul\":1700:1705   */\n  dup2\n    /* \"#utility.yul\":1693:1705   */\n  swap1\n  pop\n    /* \"#utility.yul\":1651:1711   */\n  swap2\n  swap1\n  pop\n  jump\t// out\n    /* \"#utility.yul\":1717:1859   */\ntag_17:\n    /* \"#utility.yul\":1767:1776   */\n  0x00\n    /* \"#utility.yul\":1800:1853   */\n  tag_44\n    /* \"#utility.yul\":1818:1852   */\n  tag_45\n    /* \"#utility.yul\":1827:1851   */\n  tag_46\n    /* \"#utility.yul\":1845:1850   */\n  dup5\n    /* \"#utility.yul\":1827:1851   */\n  tag_15\n  jump\t// in\ntag_46:\n    /* \"#utility.yul\":1818:1852   */\n  tag_16\n  jump\t// in\ntag_45:\n    /* \"#utility.yul\":1800:1853   */\n  tag_15\n  jump\t// in\ntag_44:\n    /* \"#utility.yul\":1787:1853   */\n  swap1\n  pop\n    /* \"#utility.yul\":1717:1859   */\n  swap2\n  swap1\n  pop\n  jump\t// out\n    /* \"#utility.yul\":1865:1940   */\ntag_18:\n    /* \"#utility.yul\":1908:1911   */\n  0x00\n    /* \"#utility.yul\":1929:1934   */\n  dup2\n    /* \"#utility.yul\":1922:1934   */\n  swap1\n  pop\n    /* \"#utility.yul\":1865:1940   */\n  swap2\n  swap1\n  pop\n  jump\t// out\n    /* \"#utility.yul\":1946:2215   */\ntag_19:\n    /* \"#utility.yul\":2056:2095   */\n  tag_49\n    /* \"#utility.yul\":2087:2094   */\n  dup4\n    /* \"#utility.yul\":2056:2095   */\n  tag_17\n  jump\t// in\ntag_49:\n    /* \"#utility.yul\":2117:2208   */\n  tag_50\n    /* \"#utility.yul\":2166:2207   */\n  tag_51\n    /* \"#utility.yul\":2190:2206   */\n  dup3\n    /* \"#utility.yul\":2166:2207   */\n  tag_18\n  jump\t// in\ntag_51:\n    /* \"#utility.yul\":2158:2164   */\n  dup5\n    /* \"#utility.yul\":2151:2155   */\n  dup5\n    /* \"#utility.yul\":2145:2156   */\n  sload\n    /* \"#utility.yul\":2117:2208   */\n  tag_14\n  jump\t// in\ntag_50:\n    /* \"#utility.yul\":2111:2115   */\n  dup3\n    /* \"#utility.yul\":2104:2209   */\n  sstore\n    /* \"#utility.yul\":2022:2215   */\n  pop\n    /* \"#utility.yul\":1946:2215   */\n  pop\n  pop\n  pop\n  jump\t// out\n    /* \"#utility.yul\":2221:2294   */\ntag_20:\n    /* \"#utility.yul\":2266:2269   */\n  0x00\n    /* \"#utility.yul\":2221:2294   */\n  swap1\n  jump\t// out\n    /* \"#utility.yul\":2300:2489   */\ntag_21:\n    /* \"#utility.yul\":2377:2409   */\n  tag_54\n  tag_20\n  jump\t// in\ntag_54:\n    /* \"#utility.yul\":2418:2483   */\n  tag_55\n    /* \"#utility.yul\":2476:2482   */\n  dup2\n    /* \"#utility.yul\":2468:2474   */\n  dup5\n    /* \"#utility.yul\":2462:2466   */\n  dup5\n    /* \"#utility.yul\":2418:2483   */\n  tag_19\n  jump\t// in\ntag_55:\n    /* \"#utility.yul\":2353:2489   */\n  pop\n    /* \"#utility.yul\":2300:2489   */\n  pop\n  pop\n  jump\t// out\n    /* \"#utility.yul\":2495:2681   */\ntag_22:\n    /* \"#utility.yul\":2555:2675   */\ntag_57:\n    /* \"#utility.yul\":2572:2575   */\n  dup2\n    /* \"#utility.yul\":2565:2570   */\n  dup2\n    /* \"#utility.yul\":2562:2576   */\n  lt\n    /* \"#utility.yul\":2555:2675   */\n  iszero\n  tag_59\n  jumpi\n    /* \"#utility.yul\":2626:2665   */\n  tag_60\n    /* \"#utility.yul\":2663:2664   */\n  0x00\n    /* \"#utility.yul\":2656:2661   */\n  dup3\n    /* \"#utility.yul\":2626:2665   */\n  tag_21\n  jump\t// in\ntag_60:\n    /* \"#utility.yul\":2599:2600   */\n  0x01\n    /* \"#utility.yul\":2592:2597   */\n  dup2\n    /* \"#utility.yul\":2588:2601   */\n  add\n    /* \"#utility.yul\":2579:2601   */\n  swap1\n  pop\n    /* \"#utility.yul\":2555:2675   */\n  jump(tag_57)\ntag_59:\n    /* \"#utility.yul\":2495:2681   */\n  pop\n  pop\n  jump\t// out\n    /* \"#utility.yul\":2687:3230   */\ntag_23:\n    /* \"#utility.yul\":2788:2790   */\n  0x1f\n    /* \"#utility.yul\":2783:2786   */\n  dup3\n    /* \"#utility.yul\":2780:2791   */\n  gt\n    /* \"#utility.yul\":2777:3223   */\n  iszero\n  tag_62\n  jumpi\n    /* \"#utility.yul\":2822:2860   */\n  tag_63\n    /* \"#utility.yul\":2854:2859   */\n  dup2\n    /* \"#utility.yul\":2822:2860   */\n  tag_11\n  jump\t// in\ntag_63:\n    /* \"#utility.yul\":2906:2935   */\n  tag_64\n    /* \"#utility.yul\":2924:2934   */\n  dup5\n    /* \"#utility.yul\":2906:2935   */\n  tag_12\n  jump\t// in\ntag_64:\n    /* \"#utility.yul\":2896:2904   */\n  dup2\n    /* \"#utility.yul\":2892:2936   */\n  add\n    /* \"#utility.yul\":3089:3091   */\n  0x20\n    /* \"#utility.yul\":3077:3087   */\n  dup6\n    /* \"#utility.yul\":3074:3092   */\n  lt\n    /* \"#utility.yul\":3071:3120   */\n  iszero\n  tag_65\n  jumpi\n    /* \"#utility.yul\":3110:3118   */\n  dup2\n    /* \"#utility.yul\":3095:3118   */\n  swap1\n  pop\n    /* \"#utility.yul\":3071:3120   */\ntag_65:\n    /* \"#utility.yul\":3133:3213   */\n  tag_66\n    /* \"#utility.yul\":3189:3211   */\n  tag_67\n    /* \"#utility.yul\":3207:3210   */\n  dup6\n    /* \"#utility.yul\":3189:3211   */\n  tag_12\n  jump\t// in\ntag_67:\n    /* \"#utility.yul\":3179:3187   */\n  dup4\n    /* \"#utility.yul\":3175:3212   */\n  add\n    /* \"#utility.yul\":3162:3173   */\n  dup3\n    /* \"#utility.yul\":3133:3213   */\n  tag_22\n  jump\t// in\ntag_66:\n    /* \"#utility.yul\":2792:3223   */\n  pop\n  pop\n    /* \"#utility.yul\":2777:3223   */\ntag_62:\n    /* \"#utility.yul\":2687:3230   */\n  pop\n  pop\n  pop\n  jump\t// out\n    /* \"#utility.yul\":3236:3353   */\ntag_24:\n    /* \"#utility.yul\":3290:3298   */\n  0x00\n    /* \"#utility.yul\":3340:3345   */\n  dup3\n    /* \"#utility.yul\":3334:3338   */\n  dup3\n    /* \"#utility.yul\":3330:3346   */\n  shr\n    /* \"#utility.yul\":3309:3346   */\n  swap1\n  pop\n    /* \"#utility.yul\":3236:3353   */\n  swap3\n  swap2\n  pop\n  pop\n  jump\t// out\n    /* \"#utility.yul\":3359:3528   */\ntag_25:\n    /* \"#utility.yul\":3403:3409   */\n  0x00\n    /* \"#utility.yul\":3436:3487   */\n  tag_70\n    /* \"#utility.yul\":3484:3485   */\n  0x00\n    /* \"#utility.yul\":3480:3486   */\n  not\n    /* \"#utility.yul\":3472:3477   */\n  dup5\n    /* \"#utility.yul\":3469:3470   */\n  0x08\n    /* \"#utility.yul\":3465:3478   */\n  mul\n    /* \"#utility.yul\":3436:3487   */\n  tag_24\n  jump\t// in\ntag_70:\n    /* \"#utility.yul\":3432:3488   */\n  not\n    /* \"#utility.yul\":3517:3521   */\n  dup1\n    /* \"#utility.yul\":3511:3515   */\n  dup4\n    /* \"#utility.yul\":3507:3522   */\n  and\n    /* \"#utility.yul\":3497:3522   */\n  swap2\n  pop\n    /* \"#utility.yul\":3410:3528   */\n  pop\n    /* \"#utility.yul\":3359:3528   */\n  swap3\n  swap2\n  pop\n  pop\n  jump\t// out\n    /* \"#utility.yul\":3533:3828   */\ntag_26:\n    /* \"#utility.yul\":3609:3613   */\n  0x00\n    /* \"#utility.yul\":3755:3784   */\n  tag_72\n    /* \"#utility.yul\":3780:3783   */\n  dup4\n    /* \"#utility.yul\":3774:3778   */\n  dup4\n    /* \"#utility.yul\":3755:3784   */\n  tag_25\n  jump\t// in\ntag_72:\n    /* \"#utility.yul\":3747:3784   */\n  swap2\n  pop\n    /* \"#utility.yul\":3817:3820   */\n  dup3\n    /* \"#utility.yul\":3814:3815   */\n  0x02\n    /* \"#utility.yul\":3810:3821   */\n  mul\n    /* \"#utility.yul\":3804:3808   */\n  dup3\n    /* \"#utility.yul\":3801:3822   */\n  or\n    /* \"#utility.yul\":3793:3822   */\n  swap1\n  pop\n    /* \"#utility.yul\":3533:3828   */\n  swap3\n  swap2\n  pop\n  pop\n  jump\t// out\n    /* \"#utility.yul\":3833:5228   */\ntag_2:\n    /* \"#utility.yul\":3950:3987   */\n  tag_74\n    /* \"#utility.yul\":3983:3986   */\n  dup3\n    /* \"#utility.yul\":3950:3987   */\n  tag_7\n  jump\t// in\ntag_74:\n    /* \"#utility.yul\":4052:4070   */\n  0xffffffffffffffff\n    /* \"#utility.yul\":4044:4050   */\n  dup2\n    /* \"#utility.yul\":4041:4071   */\n  gt\n    /* \"#utility.yul\":4038:4094   */\n  iszero\n  tag_75\n  jumpi\n    /* \"#utility.yul\":4074:4092   */\n  tag_76\n  tag_8\n  jump\t// in\ntag_76:\n    /* \"#utility.yul\":4038:4094   */\ntag_75:\n    /* \"#utility.yul\":4118:4156   */\n  tag_77\n    /* \"#utility.yul\":4150:4154   */\n  dup3\n    /* \"#utility.yul\":4144:4155   */\n  sload\n    /* \"#utility.yul\":4118:4156   */\n  tag_10\n  jump\t// in\ntag_77:\n    /* \"#utility.yul\":4203:4270   */\n  tag_78\n    /* \"#utility.yul\":4263:4269   */\n  dup3\n    /* \"#utility.yul\":4255:4261   */\n  dup3\n    /* \"#utility.yul\":4249:4253   */\n  dup6\n    /* \"#utility.yul\":4203:4270   */\n  tag_23\n  jump\t// in\ntag_78:\n    /* \"#utility.yul\":4297:4298   */\n  0x00\n    /* \"#utility.yul\":4321:4325   */\n  0x20\n    /* \"#utility.yul\":4308:4325   */\n  swap1\n  pop\n    /* \"#utility.yul\":4353:4355   */\n  0x1f\n    /* \"#utility.yul\":4345:4351   */\n  dup4\n    /* \"#utility.yul\":4342:4356   */\n  gt\n    /* \"#utility.yul\":4370:4371   */\n  0x01\n    /* \"#utility.yul\":4365:4983   */\n  dup2\n  eq\n  tag_80\n  jumpi\n    /* \"#utility.yul\":5027:5028   */\n  0x00\n    /* \"#utility.yul\":5044:5050   */\n  dup5\n    /* \"#utility.yul\":5041:5118   */\n  iszero\n  tag_81\n  jumpi\n    /* \"#utility.yul\":5093:5102   */\n  dup3\n    /* \"#utility.yul\":5088:5091   */\n  dup8\n    /* \"#utility.yul\":5084:5103   */\n  add\n    /* \"#utility.yul\":5078:5104   */\n  mload\n    /* \"#utility.yul\":5069:5104   */\n  swap1\n  pop\n    /* \"#utility.yul\":5041:5118   */\ntag_81:\n    /* \"#utility.yul\":5144:5211   */\n  tag_82\n    /* \"#utility.yul\":5204:5210   */\n  dup6\n    /* \"#utility.yul\":5197:5202   */\n  dup3\n    /* \"#utility.yul\":5144:5211   */\n  tag_26\n  jump\t// in\ntag_82:\n    /* \"#utility.yul\":5138:5142   */\n  dup7\n    /* \"#utility.yul\":5131:5212   */\n  sstore\n    /* \"#utility.yul\":5000:5222   */\n  pop\n    /* \"#utility.yul\":4335:5222   */\n  jump(tag_79)\n    /* \"#utility.yul\":4365:4983   */\ntag_80:\n    /* \"#utility.yul\":4417:4421   */\n  0x1f\n    /* \"#utility.yul\":4413:4422   */\n  not\n    /* \"#utility.yul\":4405:4411   */\n  dup5\n    /* \"#utility.yul\":4401:4423   */\n  and\n    /* \"#utility.yul\":4451:4488   */\n  tag_83\n    /* \"#utility.yul\":4483:4487   */\n  dup7\n    /* \"#utility.yul\":4451:4488   */\n  tag_11\n  jump\t// in\ntag_83:\n    /* \"#utility.yul\":4510:4511   */\n  0x00\n    /* \"#utility.yul\":4524:4732   */\ntag_84:\n    /* \"#utility.yul\":4538:4545   */\n  dup3\n    /* \"#utility.yul\":4535:4536   */\n  dup2\n    /* \"#utility.yul\":4532:4546   */\n  lt\n    /* \"#utility.yul\":4524:4732   */\n  iszero\n  tag_86\n  jumpi\n    /* \"#utility.yul\":4617:4626   */\n  dup5\n    /* \"#utility.yul\":4612:4615   */\n  dup10\n    /* \"#utility.yul\":4608:4627   */\n  add\n    /* \"#utility.yul\":4602:4628   */\n  mload\n    /* \"#utility.yul\":4594:4600   */\n  dup3\n    /* \"#utility.yul\":4587:4629   */\n  sstore\n    /* \"#utility.yul\":4668:4669   */\n  0x01\n    /* \"#utility.yul\":4660:4666   */\n  dup3\n    /* \"#utility.yul\":4656:4670   */\n  add\n    /* \"#utility.yul\":4646:4670   */\n  swap2\n  pop\n    /* \"#utility.yul\":4715:4717   */\n  0x20\n    /* \"#utility.yul\":4704:4713   */\n  dup6\n    /* \"#utility.yul\":4700:4718   */\n  add\n    /* \"#utility.yul\":4687:4718   */\n  swap5\n  pop\n    /* \"#utility.yul\":4561:4565   */\n  0x20\n    /* \"#utility.yul\":4558:4559   */\n  dup2\n    /* \"#utility.yul\":4554:4566   */\n  add\n    /* \"#utility.yul\":4549:4566   */\n  swap1\n  pop\n    /* \"#utility.yul\":4524:4732   */\n  jump(tag_84)\ntag_86:\n    /* \"#utility.yul\":4760:4766   */\n  dup7\n    /* \"#utility.yul\":4751:4758   */\n  dup4\n    /* \"#utility.yul\":4748:4767   */\n  lt\n    /* \"#utility.yul\":4745:4924   */\n  iszero\n  tag_87\n  jumpi\n    /* \"#utility.yul\":4818:4827   */\n  dup5\n    /* \"#utility.yul\":4813:4816   */\n  dup10\n    /* \"#utility.yul\":4809:4828   */\n  add\n    /* \"#utility.yul\":4803:4829   */\n  mload\n    /* \"#utility.yul\":4861:4909   */\n  tag_88\n    /* \"#utility.yul\":4903:4907   */\n  0x1f\n    /* \"#utility.yul\":4895:4901   */\n  dup10\n    /* \"#utility.yul\":4891:4908   */\n  and\n    /* \"#utility.yul\":4880:4889   */\n  dup3\n    /* \"#utility.yul\":4861:4909   */\n  tag_25\n  jump\t// in\ntag_88:\n    /* \"#utility.yul\":4853:4859   */\n  dup4\n    /* \"#utility.yul\":4846:4910   */\n  sstore\n    /* \"#utility.yul\":4768:4924   */\n  pop\n    /* \"#utility.yul\":4745:4924   */\ntag_87:\n    /* \"#utility.yul\":4970:4971   */\n  0x01\n    /* \"#utility.yul\":4966:4967   */\n  0x02\n    /* \"#utility.yul\":4958:4964   */\n  dup9\n    /* \"#utility.yul\":4954:4968   */\n  mul\n    /* \"#utility.yul\":4950:4972   */\n  add\n    /* \"#utility.yul\":4944:4948   */\n  dup9\n    /* \"#utility.yul\":4937:4973   */\n  sstore\n    /* \"#utility.yul\":4372:4983   */\n  pop\n  pop\n  pop\n    /* \"#utility.yul\":4335:5222   */\ntag_79:\n  pop\n    /* \"#utility.yul\":3925:5228   */\n  pop\n  pop\n  pop\n    /* \"#utility.yul\":3833:5228   */\n  pop\n  pop\n  jump\t// out\n    /* \"contracts/Armazenamento.sol\":145:439  contract Armazenamento is ArmazenamentoInterface, ControleAcessoDono {... */\ntag_6:\n  dataSize(sub_0)\n  dup1\n  dataOffset(sub_0)\n  0x00\n  codecopy\n  0x00\n  return\nstop\n\nsub_0: assembly {\n        /* \"contracts/Armazenamento.sol\":145:439  contract Armazenamento is ArmazenamentoInterface, ControleAcessoDono {... */\n      mstore(0x40, 0x80)\n      callvalue\n      dup1\n      iszero\n      tag_1\n      jumpi\n      0x00\n      dup1\n      revert\n    tag_1:\n      pop\n      jumpi(tag_2, lt(calldatasize, 0x04))\n      shr(0xe0, calldataload(0x00))\n      dup1\n      0xb404ad1c\n      eq\n      tag_3\n      jumpi\n      dup1\n      0xf8ac37c5\n      eq\n      tag_4\n      jumpi\n    tag_2:\n      0x00\n      dup1\n      revert\n        /* \"contracts/Armazenamento.sol\":346:437  function recuperar() public view returns (string memory) {... */\n    tag_3:\n      tag_5\n      tag_6\n      jump\t// in\n    tag_5:\n      mload(0x40)\n      tag_7\n      swap2\n      swap1\n      tag_8\n      jump\t// in\n    tag_7:\n      mload(0x40)\n      dup1\n      swap2\n      sub\n      swap1\n      return\n        /* \"contracts/Armazenamento.sol\":249:340  function guardar(string memory texto) public apenasDono {... */\n    tag_4:\n      tag_9\n      0x04\n      dup1\n      calldatasize\n      sub\n      dup2\n      add\n      swap1\n      tag_10\n      swap2\n      swap1\n      tag_11\n      jump\t// in\n    tag_10:\n      tag_12\n      jump\t// in\n    tag_9:\n      stop\n        /* \"contracts/Armazenamento.sol\":346:437  function recuperar() public view returns (string memory) {... */\n    tag_6:\n        /* \"contracts/Armazenamento.sol\":388:401  string memory */\n      0x60\n        /* \"contracts/Armazenamento.sol\":420:430  armazenado */\n      0x01\n        /* \"contracts/Armazenamento.sol\":413:430  return armazenado */\n      dup1\n      sload\n      tag_14\n      swap1\n      tag_15\n      jump\t// in\n    tag_14:\n      dup1\n      0x1f\n      add\n      0x20\n      dup1\n      swap2\n      div\n      mul\n      0x20\n      add\n      mload(0x40)\n      swap1\n      dup2\n      add\n      0x40\n      mstore\n      dup1\n      swap3\n      swap2\n      swap1\n      dup2\n      dup2\n      mstore\n      0x20\n      add\n      dup3\n      dup1\n      sload\n      tag_16\n      swap1\n      tag_15\n      jump\t// in\n    tag_16:\n      dup1\n      iszero\n      tag_17\n      jumpi\n      dup1\n      0x1f\n      lt\n      tag_18\n      jumpi\n      0x0100\n      dup1\n      dup4\n      sload\n      div\n      mul\n      dup4\n      mstore\n      swap2\n      0x20\n      add\n      swap2\n      jump(tag_17)\n    tag_18:\n      dup3\n      add\n      swap2\n      swap1\n      0x00\n      mstore\n      keccak256(0x00, 0x20)\n      swap1\n    tag_19:\n      dup2\n      sload\n      dup2\n      mstore\n      swap1\n      0x01\n      add\n      swap1\n      0x20\n      add\n      dup1\n      dup4\n      gt\n      tag_19\n      jumpi\n      dup3\n      swap1\n      sub\n      0x1f\n      and\n      dup3\n      add\n      swap2\n    tag_17:\n      pop\n      pop\n      pop\n      pop\n      pop\n      swap1\n      pop\n        /* \"contracts/Armazenamento.sol\":346:437  function recuperar() public view returns (string memory) {... */\n      swap1\n      jump\t// out\n        /* \"contracts/Armazenamento.sol\":249:340  function guardar(string memory texto) public apenasDono {... */\n    tag_12:\n        /* \"contracts/ControleAcessoDono.sol\":240:244  dono */\n      0x00\n      dup1\n      sload\n      swap1\n      0x0100\n      exp\n      swap1\n      div\n      0xffffffffffffffffffffffffffffffffffffffff\n      and\n        /* \"contracts/ControleAcessoDono.sol\":226:244  msg.sender == dono */\n      0xffffffffffffffffffffffffffffffffffffffff\n      and\n        /* \"contracts/ControleAcessoDono.sol\":226:236  msg.sender */\n      caller\n        /* \"contracts/ControleAcessoDono.sol\":226:244  msg.sender == dono */\n      0xffffffffffffffffffffffffffffffffffffffff\n      and\n      eq\n        /* \"contracts/ControleAcessoDono.sol\":218:286  require(msg.sender == dono, \"Apenas o dono pode chamar esta funcao\") */\n      tag_21\n      jumpi\n      mload(0x40)\n      0x08c379a000000000000000000000000000000000000000000000000000000000\n      dup2\n      mstore\n      0x04\n      add\n      tag_22\n      swap1\n      tag_23\n      jump\t// in\n    tag_22:\n      mload(0x40)\n      dup1\n      swap2\n      sub\n      swap1\n      revert\n    tag_21:\n        /* \"contracts/Armazenamento.sol\":328:333  texto */\n      dup1\n        /* \"contracts/Armazenamento.sol\":315:325  armazenado */\n      0x01\n        /* \"contracts/Armazenamento.sol\":315:333  armazenado = texto */\n      swap1\n      dup2\n      tag_25\n      swap2\n      swap1\n      tag_26\n      jump\t// in\n    tag_25:\n      pop\n        /* \"contracts/Armazenamento.sol\":249:340  function guardar(string memory texto) public apenasDono {... */\n      pop\n      jump\t// out\n        /* \"#utility.yul\":7:106   */\n    tag_27:\n        /* \"#utility.yul\":59:65   */\n      0x00\n        /* \"#utility.yul\":93:98   */\n      dup2\n        /* \"#utility.yul\":87:99   */\n      mload\n        /* \"#utility.yul\":77:99   */\n      swap1\n      pop\n        /* \"#utility.yul\":7:106   */\n      swap2\n      swap1\n      pop\n      jump\t// out\n        /* \"#utility.yul\":112:281   */\n    tag_28:\n        /* \"#utility.yul\":196:207   */\n      0x00\n        /* \"#utility.yul\":230:236   */\n      dup3\n        /* \"#utility.yul\":225:228   */\n      dup3\n        /* \"#utility.yul\":218:237   */\n      mstore\n        /* \"#utility.yul\":270:274   */\n      0x20\n        /* \"#utility.yul\":265:268   */\n      dup3\n        /* \"#utility.yul\":261:275   */\n      add\n        /* \"#utility.yul\":246:275   */\n      swap1\n      pop\n        /* \"#utility.yul\":112:281   */\n      swap3\n      swap2\n      pop\n      pop\n      jump\t// out\n        /* \"#utility.yul\":287:533   */\n    tag_29:\n        /* \"#utility.yul\":368:369   */\n      0x00\n        /* \"#utility.yul\":378:491   */\n    tag_67:\n        /* \"#utility.yul\":392:398   */\n      dup4\n        /* \"#utility.yul\":389:390   */\n      dup2\n        /* \"#utility.yul\":386:399   */\n      lt\n        /* \"#utility.yul\":378:491   */\n      iszero\n      tag_69\n      jumpi\n        /* \"#utility.yul\":477:478   */\n      dup1\n        /* \"#utility.yul\":472:475   */\n      dup3\n        /* \"#utility.yul\":468:479   */\n      add\n        /* \"#utility.yul\":462:480   */\n      mload\n        /* \"#utility.yul\":458:459   */\n      dup2\n        /* \"#utility.yul\":453:456   */\n      dup5\n        /* \"#utility.yul\":449:460   */\n      add\n        /* \"#utility.yul\":442:481   */\n      mstore\n        /* \"#utility.yul\":414:416   */\n      0x20\n        /* \"#utility.yul\":411:412   */\n      dup2\n        /* \"#utility.yul\":407:417   */\n      add\n        /* \"#utility.yul\":402:417   */\n      swap1\n      pop\n        /* \"#utility.yul\":378:491   */\n      jump(tag_67)\n    tag_69:\n        /* \"#utility.yul\":525:526   */\n      0x00\n        /* \"#utility.yul\":516:522   */\n      dup5\n        /* \"#utility.yul\":511:514   */\n      dup5\n        /* \"#utility.yul\":507:523   */\n      add\n        /* \"#utility.yul\":500:527   */\n      mstore\n        /* \"#utility.yul\":349:533   */\n      pop\n        /* \"#utility.yul\":287:533   */\n      pop\n      pop\n      pop\n      jump\t// out\n        /* \"#utility.yul\":539:641   */\n    tag_30:\n        /* \"#utility.yul\":580:586   */\n      0x00\n        /* \"#utility.yul\":631:633   */\n      0x1f\n        /* \"#utility.yul\":627:634   */\n      not\n        /* \"#utility.yul\":622:624   */\n      0x1f\n        /* \"#utility.yul\":615:620   */\n      dup4\n        /* \"#utility.yul\":611:625   */\n      add\n        /* \"#utility.yul\":607:635   */\n      and\n        /* \"#utility.yul\":597:635   */\n      swap1\n      pop\n        /* \"#utility.yul\":539:641   */\n      swap2\n      swap1\n      pop\n      jump\t// out\n        /* \"#utility.yul\":647:1024   */\n    tag_31:\n        /* \"#utility.yul\":735:738   */\n      0x00\n        /* \"#utility.yul\":763:802   */\n      tag_72\n        /* \"#utility.yul\":796:801   */\n      dup3\n        /* \"#utility.yul\":763:802   */\n      tag_27\n      jump\t// in\n    tag_72:\n        /* \"#utility.yul\":818:889   */\n      tag_73\n        /* \"#utility.yul\":882:888   */\n      dup2\n        /* \"#utility.yul\":877:880   */\n      dup6\n        /* \"#utility.yul\":818:889   */\n      tag_28\n      jump\t// in\n    tag_73:\n        /* \"#utility.yul\":811:889   */\n      swap4\n      pop\n        /* \"#utility.yul\":898:963   */\n      tag_74\n        /* \"#utility.yul\":956:962   */\n      dup2\n        /* \"#utility.yul\":951:954   */\n      dup6\n        /* \"#utility.yul\":944:948   */\n      0x20\n        /* \"#utility.yul\":937:942   */\n      dup7\n        /* \"#utility.yul\":933:949   */\n      add\n        /* \"#utility.yul\":898:963   */\n      tag_29\n      jump\t// in\n    tag_74:\n        /* \"#utility.yul\":988:1017   */\n      tag_75\n        /* \"#utility.yul\":1010:1016   */\n      dup2\n        /* \"#utility.yul\":988:1017   */\n      tag_30\n      jump\t// in\n    tag_75:\n        /* \"#utility.yul\":983:986   */\n      dup5\n        /* \"#utility.yul\":979:1018   */\n      add\n        /* \"#utility.yul\":972:1018   */\n      swap2\n      pop\n        /* \"#utility.yul\":739:1024   */\n      pop\n        /* \"#utility.yul\":647:1024   */\n      swap3\n      swap2\n      pop\n      pop\n      jump\t// out\n        /* \"#utility.yul\":1030:1343   */\n    tag_8:\n        /* \"#utility.yul\":1143:1147   */\n      0x00\n        /* \"#utility.yul\":1181:1183   */\n      0x20\n        /* \"#utility.yul\":1170:1179   */\n      dup3\n        /* \"#utility.yul\":1166:1184   */\n      add\n        /* \"#utility.yul\":1158:1184   */\n      swap1\n      pop\n        /* \"#utility.yul\":1230:1239   */\n      dup2\n        /* \"#utility.yul\":1224:1228   */\n      dup2\n        /* \"#utility.yul\":1220:1240   */\n      sub\n        /* \"#utility.yul\":1216:1217   */\n      0x00\n        /* \"#utility.yul\":1205:1214   */\n      dup4\n        /* \"#utility.yul\":1201:1218   */\n      add\n        /* \"#utility.yul\":1194:1241   */\n      mstore\n        /* \"#utility.yul\":1258:1336   */\n      tag_77\n        /* \"#utility.yul\":1331:1335   */\n      dup2\n        /* \"#utility.yul\":1322:1328   */\n      dup5\n        /* \"#utility.yul\":1258:1336   */\n      tag_31\n      jump\t// in\n    tag_77:\n        /* \"#utility.yul\":1250:1336   */\n      swap1\n      pop\n        /* \"#utility.yul\":1030:1343   */\n      swap3\n      swap2\n      pop\n      pop\n      jump\t// out\n        /* \"#utility.yul\":1349:1424   */\n    tag_32:\n        /* \"#utility.yul\":1382:1388   */\n      0x00\n        /* \"#utility.yul\":1415:1417   */\n      0x40\n        /* \"#utility.yul\":1409:1418   */\n      mload\n        /* \"#utility.yul\":1399:1418   */\n      swap1\n      pop\n        /* \"#utility.yul\":1349:1424   */\n      swap1\n      jump\t// out\n        /* \"#utility.yul\":1430:1547   */\n    tag_33:\n        /* \"#utility.yul\":1539:1540   */\n      0x00\n        /* \"#utility.yul\":1536:1537   */\n      dup1\n        /* \"#utility.yul\":1529:1541   */\n      revert\n        /* \"#utility.yul\":1553:1670   */\n    tag_34:\n        /* \"#utility.yul\":1662:1663   */\n      0x00\n        /* \"#utility.yul\":1659:1660   */\n      dup1\n        /* \"#utility.yul\":1652:1664   */\n      revert\n        /* \"#utility.yul\":1676:1793   */\n    tag_35:\n        /* \"#utility.yul\":1785:1786   */\n      0x00\n        /* \"#utility.yul\":1782:1783   */\n      dup1\n        /* \"#utility.yul\":1775:1787   */\n      revert\n        /* \"#utility.yul\":1799:1916   */\n    tag_36:\n        /* \"#utility.yul\":1908:1909   */\n      0x00\n        /* \"#utility.yul\":1905:1906   */\n      dup1\n        /* \"#utility.yul\":1898:1910   */\n      revert\n        /* \"#utility.yul\":1922:2102   */\n    tag_37:\n        /* \"#utility.yul\":1970:2047   */\n      0x4e487b7100000000000000000000000000000000000000000000000000000000\n        /* \"#utility.yul\":1967:1968   */\n      0x00\n        /* \"#utility.yul\":1960:2048   */\n      mstore\n        /* \"#utility.yul\":2067:2071   */\n      0x41\n        /* \"#utility.yul\":2064:2065   */\n      0x04\n        /* \"#utility.yul\":2057:2072   */\n      mstore\n        /* \"#utility.yul\":2091:2095   */\n      0x24\n        /* \"#utility.yul\":2088:2089   */\n      0x00\n        /* \"#utility.yul\":2081:2096   */\n      revert\n        /* \"#utility.yul\":2108:2389   */\n    tag_38:\n        /* \"#utility.yul\":2191:2218   */\n      tag_85\n        /* \"#utility.yul\":2213:2217   */\n      dup3\n        /* \"#utility.yul\":2191:2218   */\n      tag_30\n      jump\t// in\n    tag_85:\n        /* \"#utility.yul\":2183:2189   */\n      dup2\n        /* \"#utility.yul\":2179:2219   */\n      add\n        /* \"#utility.yul\":2321:2327   */\n      dup2\n        /* \"#utility.yul\":2309:2319   */\n      dup2\n        /* \"#utility.yul\":2306:2328   */\n      lt\n        /* \"#utility.yul\":2285:2303   */\n      0xffffffffffffffff\n        /* \"#utility.yul\":2273:2283   */\n      dup3\n        /* \"#utility.yul\":2270:2304   */\n      gt\n        /* \"#utility.yul\":2267:2329   */\n      or\n        /* \"#utility.yul\":2264:2352   */\n      iszero\n      tag_86\n      jumpi\n        /* \"#utility.yul\":2332:2350   */\n      tag_87\n      tag_37\n      jump\t// in\n    tag_87:\n        /* \"#utility.yul\":2264:2352   */\n    tag_86:\n        /* \"#utility.yul\":2372:2382   */\n      dup1\n        /* \"#utility.yul\":2368:2370   */\n      0x40\n        /* \"#utility.yul\":2361:2383   */\n      mstore\n        /* \"#utility.yul\":2151:2389   */\n      pop\n        /* \"#utility.yul\":2108:2389   */\n      pop\n      pop\n      jump\t// out\n        /* \"#utility.yul\":2395:2524   */\n    tag_39:\n        /* \"#utility.yul\":2429:2435   */\n      0x00\n        /* \"#utility.yul\":2456:2476   */\n      tag_89\n      tag_32\n      jump\t// in\n    tag_89:\n        /* \"#utility.yul\":2446:2476   */\n      swap1\n      pop\n        /* \"#utility.yul\":2485:2518   */\n      tag_90\n        /* \"#utility.yul\":2513:2517   */\n      dup3\n        /* \"#utility.yul\":2505:2511   */\n      dup3\n        /* \"#utility.yul\":2485:2518   */\n      tag_38\n      jump\t// in\n    tag_90:\n        /* \"#utility.yul\":2395:2524   */\n      swap2\n      swap1\n      pop\n      jump\t// out\n        /* \"#utility.yul\":2530:2838   */\n    tag_40:\n        /* \"#utility.yul\":2592:2596   */\n      0x00\n        /* \"#utility.yul\":2682:2700   */\n      0xffffffffffffffff\n        /* \"#utility.yul\":2674:2680   */\n      dup3\n        /* \"#utility.yul\":2671:2701   */\n      gt\n        /* \"#utility.yul\":2668:2724   */\n      iszero\n      tag_92\n      jumpi\n        /* \"#utility.yul\":2704:2722   */\n      tag_93\n      tag_37\n      jump\t// in\n    tag_93:\n        /* \"#utility.yul\":2668:2724   */\n    tag_92:\n        /* \"#utility.yul\":2742:2771   */\n      tag_94\n        /* \"#utility.yul\":2764:2770   */\n      dup3\n        /* \"#utility.yul\":2742:2771   */\n      tag_30\n      jump\t// in\n    tag_94:\n        /* \"#utility.yul\":2734:2771   */\n      swap1\n      pop\n        /* \"#utility.yul\":2826:2830   */\n      0x20\n        /* \"#utility.yul\":2820:2824   */\n      dup2\n        /* \"#utility.yul\":2816:2831   */\n      add\n        /* \"#utility.yul\":2808:2831   */\n      swap1\n      pop\n        /* \"#utility.yul\":2530:2838   */\n      swap2\n      swap1\n      pop\n      jump\t// out\n        /* \"#utility.yul\":2844:2990   */\n    tag_41:\n        /* \"#utility.yul\":2941:2947   */\n      dup3\n        /* \"#utility.yul\":2936:2939   */\n      dup2\n        /* \"#utility.yul\":2931:2934   */\n      dup4\n        /* \"#utility.yul\":2918:2948   */\n      calldatacopy\n        /* \"#utility.yul\":2982:2983   */\n      0x00\n        /* \"#utility.yul\":2973:2979   */\n      dup4\n        /* \"#utility.yul\":2968:2971   */\n      dup4\n        /* \"#utility.yul\":2964:2980   */\n      add\n        /* \"#utility.yul\":2957:2984   */\n      mstore\n        /* \"#utility.yul\":2844:2990   */\n      pop\n      pop\n      pop\n      jump\t// out\n        /* \"#utility.yul\":2996:3421   */\n    tag_42:\n        /* \"#utility.yul\":3074:3079   */\n      0x00\n        /* \"#utility.yul\":3099:3165   */\n      tag_97\n        /* \"#utility.yul\":3115:3164   */\n      tag_98\n        /* \"#utility.yul\":3157:3163   */\n      dup5\n        /* \"#utility.yul\":3115:3164   */\n      tag_40\n      jump\t// in\n    tag_98:\n        /* \"#utility.yul\":3099:3165   */\n      tag_39\n      jump\t// in\n    tag_97:\n        /* \"#utility.yul\":3090:3165   */\n      swap1\n      pop\n        /* \"#utility.yul\":3188:3194   */\n      dup3\n        /* \"#utility.yul\":3181:3186   */\n      dup2\n        /* \"#utility.yul\":3174:3195   */\n      mstore\n        /* \"#utility.yul\":3226:3230   */\n      0x20\n        /* \"#utility.yul\":3219:3224   */\n      dup2\n        /* \"#utility.yul\":3215:3231   */\n      add\n        /* \"#utility.yul\":3264:3267   */\n      dup5\n        /* \"#utility.yul\":3255:3261   */\n      dup5\n        /* \"#utility.yul\":3250:3253   */\n      dup5\n        /* \"#utility.yul\":3246:3262   */\n      add\n        /* \"#utility.yul\":3243:3268   */\n      gt\n        /* \"#utility.yul\":3240:3352   */\n      iszero\n      tag_99\n      jumpi\n        /* \"#utility.yul\":3271:3350   */\n      tag_100\n      tag_36\n      jump\t// in\n    tag_100:\n        /* \"#utility.yul\":3240:3352   */\n    tag_99:\n        /* \"#utility.yul\":3361:3415   */\n      tag_101\n        /* \"#utility.yul\":3408:3414   */\n      dup5\n        /* \"#utility.yul\":3403:3406   */\n      dup3\n        /* \"#utility.yul\":3398:3401   */\n      dup6\n        /* \"#utility.yul\":3361:3415   */\n      tag_41\n      jump\t// in\n    tag_101:\n        /* \"#utility.yul\":3080:3421   */\n      pop\n        /* \"#utility.yul\":2996:3421   */\n      swap4\n      swap3\n      pop\n      pop\n      pop\n      jump\t// out\n        /* \"#utility.yul\":3441:3781   */\n    tag_43:\n        /* \"#utility.yul\":3497:3502   */\n      0x00\n        /* \"#utility.yul\":3546:3549   */\n      dup3\n        /* \"#utility.yul\":3539:3543   */\n      0x1f\n        /* \"#utility.yul\":3531:3537   */\n      dup4\n        /* \"#utility.yul\":3527:3544   */\n      add\n        /* \"#utility.yul\":3523:3550   */\n      slt\n        /* \"#utility.yul\":3513:3635   */\n      tag_103\n      jumpi\n        /* \"#utility.yul\":3554:3633   */\n      tag_104\n      tag_35\n      jump\t// in\n    tag_104:\n        /* \"#utility.yul\":3513:3635   */\n    tag_103:\n        /* \"#utility.yul\":3671:3677   */\n      dup2\n        /* \"#utility.yul\":3658:3678   */\n      calldataload\n        /* \"#utility.yul\":3696:3775   */\n      tag_105\n        /* \"#utility.yul\":3771:3774   */\n      dup5\n        /* \"#utility.yul\":3763:3769   */\n      dup3\n        /* \"#utility.yul\":3756:3760   */\n      0x20\n        /* \"#utility.yul\":3748:3754   */\n      dup7\n        /* \"#utility.yul\":3744:3761   */\n      add\n        /* \"#utility.yul\":3696:3775   */\n      tag_42\n      jump\t// in\n    tag_105:\n        /* \"#utility.yul\":3687:3775   */\n      swap2\n      pop\n        /* \"#utility.yul\":3503:3781   */\n      pop\n        /* \"#utility.yul\":3441:3781   */\n      swap3\n      swap2\n      pop\n      pop\n      jump\t// out\n        /* \"#utility.yul\":3787:4296   */\n    tag_11:\n        /* \"#utility.yul\":3856:3862   */\n      0x00\n        /* \"#utility.yul\":3905:3907   */\n      0x20\n        /* \"#utility.yul\":3893:3902   */\n      dup3\n        /* \"#utility.yul\":3884:3891   */\n      dup5\n        /* \"#utility.yul\":3880:3903   */\n      sub\n        /* \"#utility.yul\":3876:3908   */\n      slt\n        /* \"#utility.yul\":3873:3992   */\n      iszero\n      tag_107\n      jumpi\n        /* \"#utility.yul\":3911:3990   */\n      tag_108\n      tag_33\n      jump\t// in\n    tag_108:\n        /* \"#utility.yul\":3873:3992   */\n    tag_107:\n        /* \"#utility.yul\":4059:4060   */\n      0x00\n        /* \"#utility.yul\":4048:4057   */\n      dup3\n        /* \"#utility.yul\":4044:4061   */\n      add\n        /* \"#utility.yul\":4031:4062   */\n      calldataload\n        /* \"#utility.yul\":4089:4107   */\n      0xffffffffffffffff\n        /* \"#utility.yul\":4081:4087   */\n      dup2\n        /* \"#utility.yul\":4078:4108   */\n      gt\n        /* \"#utility.yul\":4075:4192   */\n      iszero\n      tag_109\n      jumpi\n        /* \"#utility.yul\":4111:4190   */\n      tag_110\n      tag_34\n      jump\t// in\n    tag_110:\n        /* \"#utility.yul\":4075:4192   */\n    tag_109:\n        /* \"#utility.yul\":4216:4279   */\n      tag_111\n        /* \"#utility.yul\":4271:4278   */\n      dup5\n        /* \"#utility.yul\":4262:4268   */\n      dup3\n        /* \"#utility.yul\":4251:4260   */\n      dup6\n        /* \"#utility.yul\":4247:4269   */\n      add\n        /* \"#utility.yul\":4216:4279   */\n      tag_43\n      jump\t// in\n    tag_111:\n        /* \"#utility.yul\":4206:4279   */\n      swap2\n      pop\n        /* \"#utility.yul\":4002:4289   */\n      pop\n        /* \"#utility.yul\":3787:4296   */\n      swap3\n      swap2\n      pop\n      pop\n      jump\t// out\n        /* \"#utility.yul\":4302:4482   */\n    tag_44:\n        /* \"#utility.yul\":4350:4427   */\n      0x4e487b7100000000000000000000000000000000000000000000000000000000\n        /* \"#utility.yul\":4347:4348   */\n      0x00\n        /* \"#utility.yul\":4340:4428   */\n      mstore\n        /* \"#utility.yul\":4447:4451   */\n      0x22\n        /* \"#utility.yul\":4444:4445   */\n      0x04\n        /* \"#utility.yul\":4437:4452   */\n      mstore\n        /* \"#utility.yul\":4471:4475   */\n      0x24\n        /* \"#utility.yul\":4468:4469   */\n      0x00\n        /* \"#utility.yul\":4461:4476   */\n      revert\n        /* \"#utility.yul\":4488:4808   */\n    tag_15:\n        /* \"#utility.yul\":4532:4538   */\n      0x00\n        /* \"#utility.yul\":4569:4570   */\n      0x02\n        /* \"#utility.yul\":4563:4567   */\n      dup3\n        /* \"#utility.yul\":4559:4571   */\n      div\n        /* \"#utility.yul\":4549:4571   */\n      swap1\n      pop\n        /* \"#utility.yul\":4616:4617   */\n      0x01\n        /* \"#utility.yul\":4610:4614   */\n      dup3\n        /* \"#utility.yul\":4606:4618   */\n      and\n        /* \"#utility.yul\":4637:4655   */\n      dup1\n        /* \"#utility.yul\":4627:4708   */\n      tag_114\n      jumpi\n        /* \"#utility.yul\":4693:4697   */\n      0x7f\n        /* \"#utility.yul\":4685:4691   */\n      dup3\n        /* \"#utility.yul\":4681:4698   */\n      and\n        /* \"#utility.yul\":4671:4698   */\n      swap2\n      pop\n        /* \"#utility.yul\":4627:4708   */\n    tag_114:\n        /* \"#utility.yul\":4755:4757   */\n      0x20\n        /* \"#utility.yul\":4747:4753   */\n      dup3\n        /* \"#utility.yul\":4744:4758   */\n      lt\n        /* \"#utility.yul\":4724:4742   */\n      dup2\n        /* \"#utility.yul\":4721:4759   */\n      sub\n        /* \"#utility.yul\":4718:4802   */\n      tag_115\n      jumpi\n        /* \"#utility.yul\":4774:4792   */\n      tag_116\n      tag_44\n      jump\t// in\n    tag_116:\n        /* \"#utility.yul\":4718:4802   */\n    tag_115:\n        /* \"#utility.yul\":4539:4808   */\n      pop\n        /* \"#utility.yul\":4488:4808   */\n      swap2\n      swap1\n      pop\n      jump\t// out\n        /* \"#utility.yul\":4814:5038   */\n    tag_45:\n        /* \"#utility.yul\":4954:4988   */\n      0x4170656e6173206f20646f6e6f20706f6465206368616d617220657374612066\n        /* \"#utility.yul\":4950:4951   */\n      0x00\n        /* \"#utility.yul\":4942:4948   */\n      dup3\n        /* \"#utility.yul\":4938:4952   */\n      add\n        /* \"#utility.yul\":4931:4989   */\n      mstore\n        /* \"#utility.yul\":5023:5030   */\n      0x756e63616f000000000000000000000000000000000000000000000000000000\n        /* \"#utility.yul\":5018:5020   */\n      0x20\n        /* \"#utility.yul\":5010:5016   */\n      dup3\n        /* \"#utility.yul\":5006:5021   */\n      add\n        /* \"#utility.yul\":4999:5031   */\n      mstore\n        /* \"#utility.yul\":4814:5038   */\n      pop\n      jump\t// out\n        /* \"#utility.yul\":5044:5410   */\n    tag_46:\n        /* \"#utility.yul\":5186:5189   */\n      0x00\n        /* \"#utility.yul\":5207:5274   */\n      tag_119\n        /* \"#utility.yul\":5271:5273   */\n      0x25\n        /* \"#utility.yul\":5266:5269   */\n      dup4\n        /* \"#utility.yul\":5207:5274   */\n      tag_28\n      jump\t// in\n    tag_119:\n        /* \"#utility.yul\":5200:5274   */\n      swap2\n      pop\n        /* \"#utility.yul\":5283:5376   */\n      tag_120\n        /* \"#utility.yul\":5372:5375   */\n      dup3\n        /* \"#utility.yul\":5283:5376   */\n      tag_45\n      jump\t// in\n    tag_120:\n        /* \"#utility.yul\":5401:5403   */\n      0x40\n        /* \"#utility.yul\":5396:5399   */\n      dup3\n        /* \"#utility.yul\":5392:5404   */\n      add\n        /* \"#utility.yul\":5385:5404   */\n      swap1\n      pop\n        /* \"#utility.yul\":5044:5410   */\n      swap2\n      swap1\n      pop\n      jump\t// out\n        /* \"#utility.yul\":5416:5835   */\n    tag_23:\n        /* \"#utility.yul\":5582:5586   */\n      0x00\n        /* \"#utility.yul\":5620:5622   */\n      0x20\n        /* \"#utility.yul\":5609:5618   */\n      dup3\n        /* \"#utility.yul\":5605:5623   */\n      add\n        /* \"#utility.yul\":5597:5623   */\n      swap1\n      pop\n        /* \"#utility.yul\":5669:5678   */\n      dup2\n        /* \"#utility.yul\":5663:5667   */\n      dup2\n        /* \"#utility.yul\":5659:5679   */\n      sub\n        /* \"#utility.yul\":5655:5656   */\n      0x00\n        /* \"#utility.yul\":5644:5653   */\n      dup4\n        /* \"#utility.yul\":5640:5657   */\n      add\n        /* \"#utility.yul\":5633:5680   */\n      mstore\n        /* \"#utility.yul\":5697:5828   */\n      tag_122\n        /* \"#utility.yul\":5823:5827   */\n      dup2\n        /* \"#utility.yul\":5697:5828   */\n      tag_46\n      jump\t// in\n    tag_122:\n        /* \"#utility.yul\":5689:5828   */\n      swap1\n      pop\n        /* \"#utility.yul\":5416:5835   */\n      swap2\n      swap1\n      pop\n      jump\t// out\n        /* \"#utility.yul\":5841:5982   */\n    tag_47:\n        /* \"#utility.yul\":5890:5894   */\n      0x00\n        /* \"#utility.yul\":5913:5916   */\n      dup2\n        /* \"#utility.yul\":5905:5916   */\n      swap1\n      pop\n        /* \"#utility.yul\":5936:5939   */\n      dup2\n        /* \"#utility.yul\":5933:5934   */\n      0x00\n        /* \"#utility.yul\":5926:5940   */\n      mstore\n        /* \"#utility.yul\":5970:5974   */\n      0x20\n        /* \"#utility.yul\":5967:5968   */\n      0x00\n        /* \"#utility.yul\":5957:5975   */\n      keccak256\n        /* \"#utility.yul\":5949:5975   */\n      swap1\n      pop\n        /* \"#utility.yul\":5841:5982   */\n      swap2\n      swap1\n      pop\n      jump\t// out\n        /* \"#utility.yul\":5988:6081   */\n    tag_48:\n        /* \"#utility.yul\":6025:6031   */\n      0x00\n        /* \"#utility.yul\":6072:6074   */\n      0x20\n        /* \"#utility.yul\":6067:6069   */\n      0x1f\n        /* \"#utility.yul\":6060:6065   */\n      dup4\n        /* \"#utility.yul\":6056:6070   */\n      add\n        /* \"#utility.yul\":6052:6075   */\n      div\n        /* \"#utility.yul\":6042:6075   */\n      swap1\n      pop\n        /* \"#utility.yul\":5988:6081   */\n      swap2\n      swap1\n      pop\n      jump\t// out\n        /* \"#utility.yul\":6087:6194   */\n    tag_49:\n        /* \"#utility.yul\":6131:6139   */\n      0x00\n        /* \"#utility.yul\":6181:6186   */\n      dup3\n        /* \"#utility.yul\":6175:6179   */\n      dup3\n        /* \"#utility.yul\":6171:6187   */\n      shl\n        /* \"#utility.yul\":6150:6187   */\n      swap1\n      pop\n        /* \"#utility.yul\":6087:6194   */\n      swap3\n      swap2\n      pop\n      pop\n      jump\t// out\n        /* \"#utility.yul\":6200:6593   */\n    tag_50:\n        /* \"#utility.yul\":6269:6275   */\n      0x00\n        /* \"#utility.yul\":6319:6320   */\n      0x08\n        /* \"#utility.yul\":6307:6317   */\n      dup4\n        /* \"#utility.yul\":6303:6321   */\n      mul\n        /* \"#utility.yul\":6342:6439   */\n      tag_127\n        /* \"#utility.yul\":6372:6438   */\n      0xffffffffffffffffffffffffffffffffffffffffffffffffffffffffffffffff\n        /* \"#utility.yul\":6361:6370   */\n      dup3\n        /* \"#utility.yul\":6342:6439   */\n      tag_49\n      jump\t// in\n    tag_127:\n        /* \"#utility.yul\":6460:6499   */\n      tag_128\n        /* \"#utility.yul\":6490:6498   */\n      dup7\n        /* \"#utility.yul\":6479:6488   */\n      dup4\n        /* \"#utility.yul\":6460:6499   */\n      tag_49\n      jump\t// in\n    tag_128:\n        /* \"#utility.yul\":6448:6499   */\n      swap6\n      pop\n        /* \"#utility.yul\":6532:6536   */\n      dup1\n        /* \"#utility.yul\":6528:6537   */\n      not\n        /* \"#utility.yul\":6521:6526   */\n      dup5\n        /* \"#utility.yul\":6517:6538   */\n      and\n        /* \"#utility.yul\":6508:6538   */\n      swap4\n      pop\n        /* \"#utility.yul\":6581:6585   */\n      dup1\n        /* \"#utility.yul\":6571:6579   */\n      dup7\n        /* \"#utility.yul\":6567:6586   */\n      and\n        /* \"#utility.yul\":6560:6565   */\n      dup5\n        /* \"#utility.yul\":6557:6587   */\n      or\n        /* \"#utility.yul\":6547:6587   */\n      swap3\n      pop\n        /* \"#utility.yul\":6276:6593   */\n      pop\n      pop\n        /* \"#utility.yul\":6200:6593   */\n      swap4\n      swap3\n      pop\n      pop\n      pop\n      jump\t// out\n        /* \"#utility.yul\":6599:6676   */\n    tag_51:\n        /* \"#utility.yul\":6636:6643   */\n      0x00\n        /* \"#utility.yul\":6665:6670   */\n      dup2\n        /* \"#utility.yul\":6654:6670   */\n      swap1\n      pop\n        /* \"#utility.yul\":6599:6676   */\n      swap2\n      swap1\n      pop\n      jump\t// out\n        /* \"#utility.yul\":6682:6742   */\n    tag_52:\n        /* \"#utility.yul\":6710:6713   */\n      0x00\n        /* \"#utility.yul\":6731:6736   */\n      dup2\n        /* \"#utility.yul\":6724:6736   */\n      swap1\n      pop\n        /* \"#utility.yul\":6682:6742   */\n      swap2\n      swap1\n      pop\n      jump\t// out\n        /* \"#utility.yul\":6748:6890   */\n    tag_53:\n        /* \"#utility.yul\":6798:6807   */\n      0x00\n        /* \"#utility.yul\":6831:6884   */\n      tag_132\n        /* \"#utility.yul\":6849:6883   */\n      tag_133\n        /* \"#utility.yul\":6858:6882   */\n      tag_134\n        /* \"#utility.yul\":6876:6881   */\n      dup5\n        /* \"#utility.yul\":6858:6882   */\n      tag_51\n      jump\t// in\n    tag_134:\n        /* \"#utility.yul\":6849:6883   */\n      tag_52\n      jump\t// in\n    tag_133:\n        /* \"#utility.yul\":6831:6884   */\n      tag_51\n      jump\t// in\n    tag_132:\n        /* \"#utility.yul\":6818:6884   */\n      swap1\n      pop\n        /* \"#utility.yul\":6748:6890   */\n      swap2\n      swap1\n      pop\n      jump\t// out\n        /* \"#utility.yul\":6896:6971   */\n    tag_54:\n        /* \"#utility.yul\":6939:6942   */\n      0x00\n        /* \"#utility.yul\":6960:6965   */\n      dup2\n        /* \"#utility.yul\":6953:6965   */\n      swap1\n      pop\n        /* \"#utility.yul\":6896:6971   */\n      swap2\n      swap1\n      pop\n      jump\t// out\n        /* \"#utility.yul\":6977:7246   */\n    tag_55:\n        /* \"#utility.yul\":7087:7126   */\n      tag_137\n        /* \"#utility.yul\":7118:7125   */\n      dup4\n        /* \"#utility.yul\":7087:7126   */\n      tag_53\n      jump\t// in\n    tag_137:\n        /* \"#utility.yul\":7148:7239   */\n      tag_138\n        /* \"#utility.yul\":7197:7238   */\n      tag_139\n        /* \"#utility.yul\":7221:7237   */\n      dup3\n        /* \"#utility.yul\":7197:7238   */\n      tag_54\n      jump\t// in\n    tag_139:\n        /* \"#utility.yul\":7189:7195   */\n      dup5\n        /* \"#utility.yul\":7182:7186   */\n      dup5\n        /* \"#utility.yul\":7176:7187   */\n      sload\n        /* \"#utility.yul\":7148:7239   */\n      tag_50\n      jump\t// in\n    tag_138:\n        /* \"#utility.yul\":7142:7146   */\n      dup3\n        /* \"#utility.yul\":7135:7240   */\n      sstore\n        /* \"#utility.yul\":7053:7246   */\n      pop\n        /* \"#utility.yul\":6977:7246   */\n      pop\n      pop\n      pop\n      jump\t// out\n        /* \"#utility.yul\":7252:7325   */\n    tag_56:\n        /* \"#utility.yul\":7297:7300   */\n      0x00\n        /* \"#utility.yul\":7252:7325   */\n      swap1\n      jump\t// out\n        /* \"#utility.yul\":7331:7520   */\n    tag_57:\n        /* \"#utility.yul\":7408:7440   */\n      tag_142\n      tag_56\n      jump\t// in\n    tag_142:\n        /* \"#utility.yul\":7449:7514   */\n      tag_143\n        /* \"#utility.yul\":7507:7513   */\n      dup2\n        /* \"#utility.yul\":7499:7505   */\n      dup5\n        /* \"#utility.yul\":7493:7497   */\n      dup5\n        /* \"#utility.yul\":7449:7514   */\n      tag_55\n      jump\t// in\n    tag_143:\n        /* \"#utility.yul\":7384:7520   */\n      pop\n        /* \"#utility.yul\":7331:7520   */\n      pop\n      pop\n      jump\t// out\n        /* \"#utility.yul\":7526:7712   */\n    tag_58:\n        /* \"#utility.yul\":7586:7706   */\n    tag_145:\n        /* \"#utility.yul\":7603:7606   */\n      dup2\n        /* \"#utility.yul\":7596:7601   */\n      dup2\n        /* \"#utility.yul\":7593:7607   */\n      lt\n        /* \"#utility.yul\":7586:7706   */\n      iszero\n      tag_147\n      jumpi\n        /* \"#utility.yul\":7657:7696   */\n      tag_148\n        /* \"#utility.yul\":7694:7695   */\n      0x00\n        /* \"#utility.yul\":7687:7692   */\n      dup3\n        /* \"#utility.yul\":7657:7696   */\n      tag_57\n      jump\t// in\n    tag_148:\n        /* \"#utility.yul\":7630:7631   */\n      0x01\n        /* \"#utility.yul\":7623:7628   */\n      dup2\n        /* \"#utility.yul\":7619:7632   */\n      add\n        /* \"#utility.yul\":7610:7632   */\n      swap1\n      pop\n        /* \"#utility.yul\":7586:7706   */\n      jump(tag_145)\n    tag_147:\n        /* \"#utility.yul\":7526:7712   */\n      pop\n      pop\n      jump\t// out\n        /* \"#utility.yul\":7718:8261   */\n    tag_59:\n        /* \"#utility.yul\":7819:7821   */\n      0x1f\n        /* \"#utility.yul\":7814:7817   */\n      dup3\n        /* \"#utility.yul\":7811:7822   */\n      gt\n        /* \"#utility.yul\":7808:8254   */\n      iszero\n      tag_150\n      jumpi\n        /* \"#utility.yul\":7853:7891   */\n      tag_151\n        /* \"#utility.yul\":7885:7890   */\n      dup2\n        /* \"#utility.yul\":7853:7891   */\n      tag_47\n      jump\t// in\n    tag_151:\n        /* \"#utility.yul\":7937:7966   */\n      tag_152\n        /* \"#utility.yul\":7955:7965   */\n      dup5\n        /* \"#utility.yul\":7937:7966   */\n      tag_48\n      jump\t// in\n    tag_152:\n        /* \"#utility.yul\":7927:7935   */\n      dup2\n        /* \"#utility.yul\":7923:7967   */\n      add\n        /* \"#utility.yul\":8120:8122   */\n      0x20\n        /* \"#utility.yul\":8108:8118   */\n      dup6\n        /* \"#utility.yul\":8105:8123   */\n      lt\n        /* \"#utility.yul\":8102:8151   */\n      iszero\n      tag_153\n      jumpi\n        /* \"#utility.yul\":8141:8149   */\n      dup2\n        /* \"#utility.yul\":8126:8149   */\n      swap1\n      pop\n        /* \"#utility.yul\":8102:8151   */\n    tag_153:\n        /* \"#utility.yul\":8164:8244   */\n      tag_154\n        /* \"#utility.yul\":8220:8242   */\n      tag_155\n        /* \"#utility.yul\":8238:8241   */\n      dup6\n        /* \"#utility.yul\":8220:8242   */\n      tag_48\n      jump\t// in\n    tag_155:\n        /* \"#utility.yul\":8210:8218   */\n      dup4\n        /* \"#utility.yul\":8206:8243   */\n      add\n        /* \"#utility.yul\":8193:8204   */\n      dup3\n        /* \"#utility.yul\":8164:8244   */\n      tag_58\n      jump\t// in\n    tag_154:\n        /* \"#utility.yul\":7823:8254   */\n      pop\n      pop\n        /* \"#utility.yul\":7808:8254   */\n    tag_150:\n        /* \"#utility.yul\":7718:8261   */\n      pop\n      pop\n      pop\n      jump\t// out\n        /* \"#utility.yul\":8267:8384   */\n    tag_60:\n        /* \"#utility.yul\":8321:8329   */\n      0x00\n        /* \"#utility.yul\":8371:8376   */\n      dup3\n        /* \"#utility.yul\":8365:8369   */\n      dup3\n        /* \"#utility.yul\":8361:8377   */\n      shr\n        /* \"#utility.yul\":8340:8377   */\n      swap1\n      pop\n        /* \"#utility.yul\":8267:8384   */\n      swap3\n      swap2\n      pop\n      pop\n      jump\t// out\n        /* \"#utility.yul\":8390:8559   */\n    tag_61:\n        /* \"#utility.yul\":8434:8440   */\n      0x00\n        /* \"#utility.yul\":8467:8518   */\n      tag_158\n        /* \"#utility.yul\":8515:8516   */\n      0x00\n        /* \"#utility.yul\":8511:8517   */\n      not\n        /* \"#utility.yul\":8503:8508   */\n      dup5\n        /* \"#utility.yul\":8500:8501   */\n      0x08\n        /* \"#utility.yul\":8496:8509   */\n      mul\n        /* \"#utility.yul\":8467:8518   */\n      tag_60\n      jump\t// in\n    tag_158:\n        /* \"#utility.yul\":8463:8519   */\n      not\n        /* \"#utility.yul\":8548:8552   */\n      dup1\n        /* \"#utility.yul\":8542:8546   */\n      dup4\n        /* \"#utility.yul\":8538:8553   */\n      and\n        /* \"#utility.yul\":8528:8553   */\n      swap2\n      pop\n        /* \"#utility.yul\":8441:8559   */\n      pop\n        /* \"#utility.yul\":8390:8559   */\n      swap3\n      swap2\n      pop\n      pop\n      jump\t// out\n        /* \"#utility.yul\":8564:8859   */\n    tag_62:\n        /* \"#utility.yul\":8640:8644   */\n      0x00\n        /* \"#utility.yul\":8786:8815   */\n      tag_160\n        /* \"#utility.yul\":8811:8814   */\n      dup4\n        /* \"#utility.yul\":8805:8809   */\n      dup4\n        /* \"#utility.yul\":8786:8815   */\n      tag_61\n      jump\t// in\n    tag_160:\n        /* \"#utility.yul\":8778:8815   */\n      swap2\n      pop\n        /* \"#utility.yul\":8848:8851   */\n      dup3\n        /* \"#utility.yul\":8845:8846   */\n      0x02\n        /* \"#utility.yul\":8841:8852   */\n      mul\n        /* \"#utility.yul\":8835:8839   */\n      dup3\n        /* \"#utility.yul\":8832:8853   */\n      or\n        /* \"#utility.yul\":8824:8853   */\n      swap1\n      pop\n        /* \"#utility.yul\":8564:8859   */\n      swap3\n      swap2\n      pop\n      pop\n      jump\t// out\n        /* \"#utility.yul\":8864:10259   */\n    tag_26:\n        /* \"#utility.yul\":8981:9018   */\n      tag_162\n        /* \"#utility.yul\":9014:9017   */\n      dup3\n        /* \"#utility.yul\":8981:9018   */\n      tag_27\n      jump\t// in\n    tag_162:\n        /* \"#utility.yul\":9083:9101   */\n      0xffffffffffffffff\n        /* \"#utility.yul\":9075:9081   */\n      dup2\n        /* \"#utility.yul\":9072:9102   */\n      gt\n        /* \"#utility.yul\":9069:9125   */\n      iszero\n      tag_163\n      jumpi\n        /* \"#utility.yul\":9105:9123   */\n      tag_164\n      tag_37\n      jump\t// in\n    tag_164:\n        /* \"#utility.yul\":9069:9125   */\n    tag_163:\n        /* \"#utility.yul\":9149:9187   */\n      tag_165\n        /* \"#utility.yul\":9181:9185   */\n      dup3\n        /* \"#utility.yul\":9175:9186   */\n      sload\n        /* \"#utility.yul\":9149:9187   */\n      tag_15\n      jump\t// in\n    tag_165:\n        /* \"#utility.yul\":9234:9301   */\n      tag_166\n        /* \"#utility.yul\":9294:9300   */\n      dup3\n        /* \"#utility.yul\":9286:9292   */\n      dup3\n        /* \"#utility.yul\":9280:9284   */\n      dup6\n        /* \"#utility.yul\":9234:9301   */\n      tag_59\n      jump\t// in\n    tag_166:\n        /* \"#utility.yul\":9328:9329   */\n      0x00\n        /* \"#utility.yul\":9352:9356   */\n      0x20\n        /* \"#utility.yul\":9339:9356   */\n      swap1\n      pop\n        /* \"#utility.yul\":9384:9386   */\n      0x1f\n        /* \"#utility.yul\":9376:9382   */\n      dup4\n        /* \"#utility.yul\":9373:9387   */\n      gt\n        /* \"#utility.yul\":9401:9402   */\n      0x01\n        /* \"#utility.yul\":9396:10014   */\n      dup2\n      eq\n      tag_168\n      jumpi\n        /* \"#utility.yul\":10058:10059   */\n      0x00\n        /* \"#utility.yul\":10075:10081   */\n      dup5\n        /* \"#utility.yul\":10072:10149   */\n      iszero\n      tag_169\n      jumpi\n        /* \"#utility.yul\":10124:10133   */\n      dup3\n        /* \"#utility.yul\":10119:10122   */\n      dup8\n        /* \"#utility.yul\":10115:10134   */\n      add\n        /* \"#utility.yul\":10109:10135   */\n      mload\n        /* \"#utility.yul\":10100:10135   */\n      swap1\n      pop\n        /* \"#utility.yul\":10072:10149   */\n    tag_169:\n        /* \"#utility.yul\":10175:10242   */\n      tag_170\n        /* \"#utility.yul\":10235:10241   */\n      dup6\n        /* \"#utility.yul\":10228:10233   */\n      dup3\n        /* \"#utility.yul\":10175:10242   */\n      tag_62\n      jump\t// in\n    tag_170:\n        /* \"#utility.yul\":10169:10173   */\n      dup7\n        /* \"#utility.yul\":10162:10243   */\n      sstore\n        /* \"#utility.yul\":10031:10253   */\n      pop\n        /* \"#utility.yul\":9366:10253   */\n      jump(tag_167)\n        /* \"#utility.yul\":9396:10014   */\n    tag_168:\n        /* \"#utility.yul\":9448:9452   */\n      0x1f\n        /* \"#utility.yul\":9444:9453   */\n      not\n        /* \"#utility.yul\":9436:9442   */\n      dup5\n        /* \"#utility.yul\":9432:9454   */\n      and\n        /* \"#utility.yul\":9482:9519   */\n      tag_171\n        /* \"#utility.yul\":9514:9518   */\n      dup7\n        /* \"#utility.yul\":9482:9519   */\n      tag_47\n      jump\t// in\n    tag_171:\n        /* \"#utility.yul\":9541:9542   */\n      0x00\n        /* \"#utility.yul\":9555:9763   */\n    tag_172:\n        /* \"#utility.yul\":9569:9576   */\n      dup3\n        /* \"#utility.yul\":9566:9567   */\n      dup2\n        /* \"#utility.yul\":9563:9577   */\n      lt\n        /* \"#utility.yul\":9555:9763   */\n      iszero\n      tag_174\n      jumpi\n        /* \"#utility.yul\":9648:9657   */\n      dup5\n        /* \"#utility.yul\":9643:9646   */\n      dup10\n        /* \"#utility.yul\":9639:9658   */\n      add\n        /* \"#utility.yul\":9633:9659   */\n      mload\n        /* \"#utility.yul\":9625:9631   */\n      dup3\n        /* \"#utility.yul\":9618:9660   */\n      sstore\n        /* \"#utility.yul\":9699:9700   */\n      0x01\n        /* \"#utility.yul\":9691:9697   */\n      dup3\n        /* \"#utility.yul\":9687:9701   */\n      add\n        /* \"#utility.yul\":9677:9701   */\n      swap2\n      pop\n        /* \"#utility.yul\":9746:9748   */\n      0x20\n        /* \"#utility.yul\":9735:9744   */\n      dup6\n        /* \"#utility.yul\":9731:9749   */\n      add\n        /* \"#utility.yul\":9718:9749   */\n      swap5\n      pop\n        /* \"#utility.yul\":9592:9596   */\n      0x20\n        /* \"#utility.yul\":9589:9590   */\n      dup2\n        /* \"#utility.yul\":9585:9597   */\n      add\n        /* \"#utility.yul\":9580:9597   */\n      swap1\n      pop\n        /* \"#utility.yul\":9555:9763   */\n      jump(tag_172)\n    tag_174:\n        /* \"#utility.yul\":9791:9797   */\n      dup7\n        /* \"#utility.yul\":9782:9789   */\n      dup4\n        /* \"#utility.yul\":9779:9798   */\n      lt\n        /* \"#utility.yul\":9776:9955   */\n      iszero\n      tag_175\n      jumpi\n        /* \"#utility.yul\":9849:9858   */\n      dup5\n        /* \"#utility.yul\":9844:9847   */\n      dup10\n        /* \"#utility.yul\":9840:9859   */\n      add\n        /* \"#utility.yul\":9834:9860   */\n      mload\n        /* \"#utility.yul\":9892:9940   */\n      tag_176\n        /* \"#utility.yul\":9934:9938   */\n      0x1f\n        /* \"#utility.yul\":9926:9932   */\n      dup10\n        /* \"#utility.yul\":9922:9939   */\n      and\n        /* \"#utility.yul\":9911:9920   */\n      dup3\n        /* \"#utility.yul\":9892:9940   */\n      tag_61\n      jump\t// in\n    tag_176:\n        /* \"#utility.yul\":9884:9890   */\n      dup4\n        /* \"#utility.yul\":9877:9941   */\n      sstore\n        /* \"#utility.yul\":9799:9955   */\n      pop\n        /* \"#utility.yul\":9776:9955   */\n    tag_175:\n        /* \"#utility.yul\":10001:10002   */\n      0x01\n        /* \"#utility.yul\":9997:9998   */\n      0x02\n        /* \"#utility.yul\":9989:9995   */\n      dup9\n        /* \"#utility.yul\":9985:9999   */\n      mul\n        /* \"#utility.yul\":9981:10003   */\n      add\n        /* \"#utility.yul\":9975:9979   */\n      dup9\n        /* \"#utility.yul\":9968:10004   */\n      sstore\n        /* \"#utility.yul\":9403:10014   */\n      pop\n      pop\n      pop\n        /* \"#utility.yul\":9366:10253   */\n    tag_167:\n      pop\n        /* \"#utility.yul\":8956:10259   */\n      pop\n      pop\n      pop\n        /* \"#utility.yul\":8864:10259   */\n      pop\n      pop\n      jump\t// out\n\n    auxdata: 0xa2646970667358221220a33c9ee2a0cbd514b2f5f13b2a6d6ddd3dc8a0db32890f242caf5bc76d7c782764736f6c63430008170033\n}\n",
				"bytecode": {
					"linkReferences": {},
					"object": "608060405260405180602001604052805f81525060019081620000239190620002da565b5034801562000030575f80fd5b50335f806101000a81548173ffffffffffffffffffffffffffffffffffffffff021916908373ffffffffffffffffffffffffffffffffffffffff160217905550620003be565b5f81519050919050565b7f4e487b71000000000000000000000000000000000000000000000000000000005f52604160045260245ffd5b7f4e487b71000000000000000000000000000000000000000000000000000000005f52602260045260245ffd5b5f6002820490506001821680620000f257607f821691505b602082108103620001085762000107620000ad565b5b50919050565b5f819050815f5260205f209050919050565b5f6020601f8301049050919050565b5f82821b905092915050565b5f600883026200016c7fffffffffffffffffffffffffffffffffffffffffffffffffffffffffffffffff826200012f565b6200017886836200012f565b95508019841693508086168417925050509392505050565b5f819050919050565b5f819050919050565b5f620001c2620001bc620001b68462000190565b62000199565b62000190565b9050919050565b5f819050919050565b620001dd83620001a2565b620001f5620001ec82620001c9565b8484546200013b565b825550505050565b5f90565b6200020b620001fd565b62000218818484620001d2565b505050565b5b818110156200023f57620002335f8262000201565b6001810190506200021e565b5050565b601f8211156200028e5762000258816200010e565b620002638462000120565b8101602085101562000273578190505b6200028b620002828562000120565b8301826200021d565b50505b505050565b5f82821c905092915050565b5f620002b05f198460080262000293565b1980831691505092915050565b5f620002ca83836200029f565b9150826002028217905092915050565b620002e58262000076565b67ffffffffffffffff81111562000301576200030062000080565b5b6200030d8254620000da565b6200031a82828562000243565b5f60209050601f83116001811462000350575f84156200033b578287015190505b620003478582620002bd565b865550620003b6565b601f19841662000360866200010e565b5f5b82811015620003895784890151825560018201915060208501945060208101905062000362565b86831015620003a95784890151620003a5601f8916826200029f565b8355505b6001600288020188555050505b505050505050565b61076680620003cc5f395ff3fe608060405234801561000f575f80fd5b5060043610610034575f3560e01c8063b404ad1c14610038578063f8ac37c514610056575b5f80fd5b610040610072565b60405161004d919061022c565b60405180910390f35b610070600480360381019061006b9190610389565b610102565b005b606060018054610081906103fd565b80601f01602080910402602001604051908101604052809291908181526020018280546100ad906103fd565b80156100f85780601f106100cf576101008083540402835291602001916100f8565b820191905f5260205f20905b8154815290600101906020018083116100db57829003601f168201915b5050505050905090565b5f8054906101000a900473ffffffffffffffffffffffffffffffffffffffff1673ffffffffffffffffffffffffffffffffffffffff163373ffffffffffffffffffffffffffffffffffffffff161461018f576040517f08c379a00000000000000000000000000000000000000000000000000000000081526004016101869061049d565b60405180910390fd5b806001908161019e9190610661565b5050565b5f81519050919050565b5f82825260208201905092915050565b5f5b838110156101d95780820151818401526020810190506101be565b5f8484015250505050565b5f601f19601f8301169050919050565b5f6101fe826101a2565b61020881856101ac565b93506102188185602086016101bc565b610221816101e4565b840191505092915050565b5f6020820190508181035f83015261024481846101f4565b905092915050565b5f604051905090565b5f80fd5b5f80fd5b5f80fd5b5f80fd5b7f4e487b71000000000000000000000000000000000000000000000000000000005f52604160045260245ffd5b61029b826101e4565b810181811067ffffffffffffffff821117156102ba576102b9610265565b5b80604052505050565b5f6102cc61024c565b90506102d88282610292565b919050565b5f67ffffffffffffffff8211156102f7576102f6610265565b5b610300826101e4565b9050602081019050919050565b828183375f83830152505050565b5f61032d610328846102dd565b6102c3565b90508281526020810184848401111561034957610348610261565b5b61035484828561030d565b509392505050565b5f82601f8301126103705761036f61025d565b5b813561038084826020860161031b565b91505092915050565b5f6020828403121561039e5761039d610255565b5b5f82013567ffffffffffffffff8111156103bb576103ba610259565b5b6103c78482850161035c565b91505092915050565b7f4e487b71000000000000000000000000000000000000000000000000000000005f52602260045260245ffd5b5f600282049050600182168061041457607f821691505b602082108103610427576104266103d0565b5b50919050565b7f4170656e6173206f20646f6e6f20706f6465206368616d6172206573746120665f8201527f756e63616f000000000000000000000000000000000000000000000000000000602082015250565b5f6104876025836101ac565b91506104928261042d565b604082019050919050565b5f6020820190508181035f8301526104b48161047b565b9050919050565b5f819050815f5260205f209050919050565b5f6020601f8301049050919050565b5f82821b905092915050565b5f600883026105177fffffffffffffffffffffffffffffffffffffffffffffffffffffffffffffffff826104dc565b61052186836104dc565b95508019841693508086168417925050509392505050565b5f819050919050565b5f819050919050565b5f61056561056061055b84610539565b610542565b610539565b9050919050565b5f819050919050565b61057e8361054b565b61059261058a8261056c565b8484546104e8565b825550505050565b5f90565b6105a661059a565b6105b1818484610575565b505050565b5b818110156105d4576105c95f8261059e565b6001810190506105b7565b5050565b601f821115610619576105ea816104bb565b6105f3846104cd565b81016020851015610602578190505b61061661060e856104cd565b8301826105b6565b50505b505050565b5f82821c905092915050565b5f6106395f198460080261061e565b1980831691505092915050565b5f610651838361062a565b9150826002028217905092915050565b61066a826101a2565b67ffffffffffffffff81111561068357610682610265565b5b61068d82546103fd565b6106988282856105d8565b5f60209050601f8311600181146106c9575f84156106b7578287015190505b6106c18582610646565b865550610728565b601f1984166106d7866104bb565b5f5b828110156106fe578489015182556001820191506020850194506020810190506106d9565b8683101561071b5784890151610717601f89168261062a565b8355505b6001600288020188555050505b50505050505056fea2646970667358221220a33c9ee2a0cbd514b2f5f13b2a6d6ddd3dc8a0db32890f242caf5bc76d7c782764736f6c63430008170033",
					"opcodes": "PUSH1 0x80 PUSH1 0x40 MSTORE PUSH1 0x40 MLOAD DUP1 PUSH1 0x20 ADD PUSH1 0x40 MSTORE DUP1 PUSH0 DUP2 MSTORE POP PUSH1 0x1 SWAP1 DUP2 PUSH3 0x23 SWAP2 SWAP1 PUSH3 0x2DA JUMP JUMPDEST POP CALLVALUE DUP1 ISZERO PUSH3 0x30 JUMPI PUSH0 DUP1 REVERT JUMPDEST POP CALLER PUSH0 DUP1 PUSH2 0x100 EXP DUP2 SLOAD DUP2 PUSH20 0xFFFFFFFFFFFFFFFFFFFFFFFFFFFFFFFFFFFFFFFF MUL NOT AND SWAP1 DUP4 PUSH20 0xFFFFFFFFFFFFFFFFFFFFFFFFFFFFFFFFFFFFFFFF AND MUL OR SWAP1 SSTORE POP PUSH3 0x3BE JUMP JUMPDEST PUSH0 DUP2 MLOAD SWAP1 POP SWAP2 SWAP1 POP JUMP JUMPDEST PUSH32 0x4E487B7100000000000000000000000000000000000000000000000000000000 PUSH0 MSTORE PUSH1 0x41 PUSH1 0x4 MSTORE PUSH1 0x24 PUSH0 REVERT JUMPDEST PUSH32 0x4E487B7100000000000000000000000000000000000000000000000000000000 PUSH0 MSTORE PUSH1 0x22 PUSH1 0x4 MSTORE PUSH1 0x24 PUSH0 REVERT JUMPDEST PUSH0 PUSH1 0x2 DUP3 DIV SWAP1 POP PUSH1 0x1 DUP3 AND DUP1 PUSH3 0xF2 JUMPI PUSH1 0x7F DUP3 AND SWAP2 POP JUMPDEST PUSH1 0x20 DUP3 LT DUP2 SUB PUSH3 0x108 JUMPI PUSH3 0x107 PUSH3 0xAD JUMP JUMPDEST JUMPDEST POP SWAP2 SWAP1 POP JUMP JUMPDEST PUSH0 DUP2 SWAP1 POP DUP2 PUSH0 MSTORE PUSH1 0x20 PUSH0 KECCAK256 SWAP1 POP SWAP2 SWAP1 POP JUMP JUMPDEST PUSH0 PUSH1 0x20 PUSH1 0x1F DUP4 ADD DIV SWAP1 POP SWAP2 SWAP1 POP JUMP JUMPDEST PUSH0 DUP3 DUP3 SHL SWAP1 POP SWAP3 SWAP2 POP POP JUMP JUMPDEST PUSH0 PUSH1 0x8 DUP4 MUL PUSH3 0x16C PUSH32 0xFFFFFFFFFFFFFFFFFFFFFFFFFFFFFFFFFFFFFFFFFFFFFFFFFFFFFFFFFFFFFFFF DUP3 PUSH3 0x12F JUMP JUMPDEST PUSH3 0x178 DUP7 DUP4 PUSH3 0x12F JUMP JUMPDEST SWAP6 POP DUP1 NOT DUP5 AND SWAP4 POP DUP1 DUP7 AND DUP5 OR SWAP3 POP POP POP SWAP4 SWAP3 POP POP POP JUMP JUMPDEST PUSH0 DUP2 SWAP1 POP SWAP2 SWAP1 POP JUMP JUMPDEST PUSH0 DUP2 SWAP1 POP SWAP2 SWAP1 POP JUMP JUMPDEST PUSH0 PUSH3 0x1C2 PUSH3 0x1BC PUSH3 0x1B6 DUP5 PUSH3 0x190 JUMP JUMPDEST PUSH3 0x199 JUMP JUMPDEST PUSH3 0x190 JUMP JUMPDEST SWAP1 POP SWAP2 SWAP1 POP JUMP JUMPDEST PUSH0 DUP2 SWAP1 POP SWAP2 SWAP1 POP JUMP JUMPDEST PUSH3 0x1DD DUP4 PUSH3 0x1A2 JUMP JUMPDEST PUSH3 0x1F5 PUSH3 0x1EC DUP3 PUSH3 0x1C9 JUMP JUMPDEST DUP5 DUP5 SLOAD PUSH3 0x13B JUMP JUMPDEST DUP3 SSTORE POP POP POP POP JUMP JUMPDEST PUSH0 SWAP1 JUMP JUMPDEST PUSH3 0x20B PUSH3 0x1FD JUMP JUMPDEST PUSH3 0x218 DUP2 DUP5 DUP5 PUSH3 0x1D2 JUMP JUMPDEST POP POP POP JUMP JUMPDEST JUMPDEST DUP2 DUP2 LT ISZERO PUSH3 0x23F JUMPI PUSH3 0x233 PUSH0 DUP3 PUSH3 0x201 JUMP JUMPDEST PUSH1 0x1 DUP2 ADD SWAP1 POP PUSH3 0x21E JUMP JUMPDEST POP POP JUMP JUMPDEST PUSH1 0x1F DUP3 GT ISZERO PUSH3 0x28E JUMPI PUSH3 0x258 DUP2 PUSH3 0x10E JUMP JUMPDEST PUSH3 0x263 DUP5 PUSH3 0x120 JUMP JUMPDEST DUP2 ADD PUSH1 0x20 DUP6 LT ISZERO PUSH3 0x273 JUMPI DUP2 SWAP1 POP JUMPDEST PUSH3 0x28B PUSH3 0x282 DUP6 PUSH3 0x120 JUMP JUMPDEST DUP4 ADD DUP3 PUSH3 0x21D JUMP JUMPDEST POP POP JUMPDEST POP POP POP JUMP JUMPDEST PUSH0 DUP3 DUP3 SHR SWAP1 POP SWAP3 SWAP2 POP POP JUMP JUMPDEST PUSH0 PUSH3 0x2B0 PUSH0 NOT DUP5 PUSH1 0x8 MUL PUSH3 0x293 JUMP JUMPDEST NOT DUP1 DUP4 AND SWAP2 POP POP SWAP3 SWAP2 POP POP JUMP JUMPDEST PUSH0 PUSH3 0x2CA DUP4 DUP4 PUSH3 0x29F JUMP JUMPDEST SWAP2 POP DUP3 PUSH1 0x2 MUL DUP3 OR SWAP1 POP SWAP3 SWAP2 POP POP JUMP JUMPDEST PUSH3 0x2E5 DUP3 PUSH3 0x76 JUMP JUMPDEST PUSH8 0xFFFFFFFFFFFFFFFF DUP2 GT ISZERO PUSH3 0x301 JUMPI PUSH3 0x300 PUSH3 0x80 JUMP JUMPDEST JUMPDEST PUSH3 0x30D DUP3 SLOAD PUSH3 0xDA JUMP JUMPDEST PUSH3 0x31A DUP3 DUP3 DUP6 PUSH3 0x243 JUMP JUMPDEST PUSH0 PUSH1 0x20 SWAP1 POP PUSH1 0x1F DUP4 GT PUSH1 0x1 DUP2 EQ PUSH3 0x350 JUMPI PUSH0 DUP5 ISZERO PUSH3 0x33B JUMPI DUP3 DUP8 ADD MLOAD SWAP1 POP JUMPDEST PUSH3 0x347 DUP6 DUP3 PUSH3 0x2BD JUMP JUMPDEST DUP7 SSTORE POP PUSH3 0x3B6 JUMP JUMPDEST PUSH1 0x1F NOT DUP5 AND PUSH3 0x360 DUP7 PUSH3 0x10E JUMP JUMPDEST PUSH0 JUMPDEST DUP3 DUP2 LT ISZERO PUSH3 0x389 JUMPI DUP5 DUP10 ADD MLOAD DUP3 SSTORE PUSH1 0x1 DUP3 ADD SWAP2 POP PUSH1 0x20 DUP6 ADD SWAP5 POP PUSH1 0x20 DUP2 ADD SWAP1 POP PUSH3 0x362 JUMP JUMPDEST DUP7 DUP4 LT ISZERO PUSH3 0x3A9 JUMPI DUP5 DUP10 ADD MLOAD PUSH3 0x3A5 PUSH1 0x1F DUP10 AND DUP3 PUSH3 0x29F JUMP JUMPDEST DUP4 SSTORE POP JUMPDEST PUSH1 0x1 PUSH1 0x2 DUP9 MUL ADD DUP9 SSTORE POP POP POP JUMPDEST POP POP POP POP POP POP JUMP JUMPDEST PUSH2 0x766 DUP1 PUSH3 0x3CC PUSH0 CODECOPY PUSH0 RETURN INVALID PUSH1 0x80 PUSH1 0x40 MSTORE CALLVALUE DUP1 ISZERO PUSH2 0xF JUMPI PUSH0 DUP1 REVERT JUMPDEST POP PUSH1 0x4 CALLDATASIZE LT PUSH2 0x34 JUMPI PUSH0 CALLDATALOAD PUSH1 0xE0 SHR DUP1 PUSH4 0xB404AD1C EQ PUSH2 0x38 JUMPI DUP1 PUSH4 0xF8AC37C5 EQ PUSH2 0x56 JUMPI JUMPDEST PUSH0 DUP1 REVERT JUMPDEST PUSH2 0x40 PUSH2 0x72 JUMP JUMPDEST PUSH1 0x40 MLOAD PUSH2 0x4D SWAP2 SWAP1 PUSH2 0x22C JUMP JUMPDEST PUSH1 0x40 MLOAD DUP1 SWAP2 SUB SWAP1 RETURN JUMPDEST PUSH2 0x70 PUSH1 0x4 DUP1 CALLDATASIZE SUB DUP2 ADD SWAP1 PUSH2 0x6B SWAP2 SWAP1 PUSH2 0x389 JUMP JUMPDEST PUSH2 0x102 JUMP JUMPDEST STOP JUMPDEST PUSH1 0x60 PUSH1 0x1 DUP1 SLOAD PUSH2 0x81 SWAP1 PUSH2 0x3FD JUMP JUMPDEST DUP1 PUSH1 0x1F ADD PUSH1 0x20 DUP1 SWAP2 DIV MUL PUSH1 0x20 ADD PUSH1 0x40 MLOAD SWAP1 DUP2 ADD PUSH1 0x40 MSTORE DUP1 SWAP3 SWAP2 SWAP1 DUP2 DUP2 MSTORE PUSH1 0x20 ADD DUP3 DUP1 SLOAD PUSH2 0xAD SWAP1 PUSH2 0x3FD JUMP JUMPDEST DUP1 ISZERO PUSH2 0xF8 JUMPI DUP1 PUSH1 0x1F LT PUSH2 0xCF JUMPI PUSH2 0x100 DUP1 DUP4 SLOAD DIV MUL DUP4 MSTORE SWAP2 PUSH1 0x20 ADD SWAP2 PUSH2 0xF8 JUMP JUMPDEST DUP3 ADD SWAP2 SWAP1 PUSH0 MSTORE PUSH1 0x20 PUSH0 KECCAK256 SWAP1 JUMPDEST DUP2 SLOAD DUP2 MSTORE SWAP1 PUSH1 0x1 ADD SWAP1 PUSH1 0x20 ADD DUP1 DUP4 GT PUSH2 0xDB JUMPI DUP3 SWAP1 SUB PUSH1 0x1F AND DUP3 ADD SWAP2 JUMPDEST POP POP POP POP POP SWAP1 POP SWAP1 JUMP JUMPDEST PUSH0 DUP1 SLOAD SWAP1 PUSH2 0x100 EXP SWAP1 DIV PUSH20 0xFFFFFFFFFFFFFFFFFFFFFFFFFFFFFFFFFFFFFFFF AND PUSH20 0xFFFFFFFFFFFFFFFFFFFFFFFFFFFFFFFFFFFFFFFF AND CALLER PUSH20 0xFFFFFFFFFFFFFFFFFFFFFFFFFFFFFFFFFFFFFFFF AND EQ PUSH2 0x18F JUMPI PUSH1 0x40 MLOAD PUSH32 0x8C379A000000000000000000000000000000000000000000000000000000000 DUP2 MSTORE PUSH1 0x4 ADD PUSH2 0x186 SWAP1 PUSH2 0x49D JUMP JUMPDEST PUSH1 0x40 MLOAD DUP1 SWAP2 SUB SWAP1 REVERT JUMPDEST DUP1 PUSH1 0x1 SWAP1 DUP2 PUSH2 0x19E SWAP2 SWAP1 PUSH2 0x661 JUMP JUMPDEST POP POP JUMP JUMPDEST PUSH0 DUP2 MLOAD SWAP1 POP SWAP2 SWAP1 POP JUMP JUMPDEST PUSH0 DUP3 DUP3 MSTORE PUSH1 0x20 DUP3 ADD SWAP1 POP SWAP3 SWAP2 POP POP JUMP JUMPDEST PUSH0 JUMPDEST DUP4 DUP2 LT ISZERO PUSH2 0x1D9 JUMPI DUP1 DUP3 ADD MLOAD DUP2 DUP5 ADD MSTORE PUSH1 0x20 DUP2 ADD SWAP1 POP PUSH2 0x1BE JUMP JUMPDEST PUSH0 DUP5 DUP5 ADD MSTORE POP POP POP POP JUMP JUMPDEST PUSH0 PUSH1 0x1F NOT PUSH1 0x1F DUP4 ADD AND SWAP1 POP SWAP2 SWAP1 POP JUMP JUMPDEST PUSH0 PUSH2 0x1FE DUP3 PUSH2 0x1A2 JUMP JUMPDEST PUSH2 0x208 DUP2 DUP6 PUSH2 0x1AC JUMP JUMPDEST SWAP4 POP PUSH2 0x218 DUP2 DUP6 PUSH1 0x20 DUP7 ADD PUSH2 0x1BC JUMP JUMPDEST PUSH2 0x221 DUP2 PUSH2 0x1E4 JUMP JUMPDEST DUP5 ADD SWAP2 POP POP SWAP3 SWAP2 POP POP JUMP JUMPDEST PUSH0 PUSH1 0x20 DUP3 ADD SWAP1 POP DUP2 DUP2 SUB PUSH0 DUP4 ADD MSTORE PUSH2 0x244 DUP2 DUP5 PUSH2 0x1F4 JUMP JUMPDEST SWAP1 POP SWAP3 SWAP2 POP POP JUMP JUMPDEST PUSH0 PUSH1 0x40 MLOAD SWAP1 POP SWAP1 JUMP JUMPDEST PUSH0 DUP1 REVERT JUMPDEST PUSH0 DUP1 REVERT JUMPDEST PUSH0 DUP1 REVERT JUMPDEST PUSH0 DUP1 REVERT JUMPDEST PUSH32 0x4E487B7100000000000000000000000000000000000000000000000000000000 PUSH0 MSTORE PUSH1 0x41 PUSH1 0x4 MSTORE PUSH1 0x24 PUSH0 REVERT JUMPDEST PUSH2 0x29B DUP3 PUSH2 0x1E4 JUMP JUMPDEST DUP2 ADD DUP2 DUP2 LT PUSH8 0xFFFFFFFFFFFFFFFF DUP3 GT OR ISZERO PUSH2 0x2BA JUMPI PUSH2 0x2B9 PUSH2 0x265 JUMP JUMPDEST JUMPDEST DUP1 PUSH1 0x40 MSTORE POP POP POP JUMP JUMPDEST PUSH0 PUSH2 0x2CC PUSH2 0x24C JUMP JUMPDEST SWAP1 POP PUSH2 0x2D8 DUP3 DUP3 PUSH2 0x292 JUMP JUMPDEST SWAP2 SWAP1 POP JUMP JUMPDEST PUSH0 PUSH8 0xFFFFFFFFFFFFFFFF DUP3 GT ISZERO PUSH2 0x2F7 JUMPI PUSH2 0x2F6 PUSH2 0x265 JUMP JUMPDEST JUMPDEST PUSH2 0x300 DUP3 PUSH2 0x1E4 JUMP JUMPDEST SWAP1 POP PUSH1 0x20 DUP2 ADD SWAP1 POP SWAP2 SWAP1 POP JUMP JUMPDEST DUP3 DUP2 DUP4 CALLDATACOPY PUSH0 DUP4 DUP4 ADD MSTORE POP POP POP JUMP JUMPDEST PUSH0 PUSH2 0x32D PUSH2 0x328 DUP5 PUSH2 0x2DD JUMP JUMPDEST PUSH2 0x2C3 JUMP JUMPDEST SWAP1 POP DUP3 DUP2 MSTORE PUSH1 0x20 DUP2 ADD DUP5 DUP5 DUP5 ADD GT ISZERO PUSH2 0x349 JUMPI PUSH2 0x348 PUSH2 0x261 JUMP JUMPDEST JUMPDEST PUSH2 0x354 DUP5 DUP3 DUP6 PUSH2 0x30D JUMP JUMPDEST POP SWAP4 SWAP3 POP POP POP JUMP JUMPDEST PUSH0 DUP3 PUSH1 0x1F DUP4 ADD SLT PUSH2 0x370 JUMPI PUSH2 0x36F PUSH2 0x25D JUMP JUMPDEST JUMPDEST DUP2 CALLDATALOAD PUSH2 0x380 DUP5 DUP3 PUSH1 0x20 DUP7 ADD PUSH2 0x31B JUMP JUMPDEST SWAP2 POP POP SWAP3 SWAP2 POP POP JUMP JUMPDEST PUSH0 PUSH1 0x20 DUP3 DUP5 SUB SLT ISZERO PUSH2 0x39E JUMPI PUSH2 0x39D PUSH2 0x255 JUMP JUMPDEST JUMPDEST PUSH0 DUP3 ADD CALLDATALOAD PUSH8 0xFFFFFFFFFFFFFFFF DUP2 GT ISZERO PUSH2 0x3BB JUMPI PUSH2 0x3BA PUSH2 0x259 JUMP JUMPDEST JUMPDEST PUSH2 0x3C7 DUP5 DUP3 DUP6 ADD PUSH2 0x35C JUMP JUMPDEST SWAP2 POP POP SWAP3 SWAP2 POP POP JUMP JUMPDEST PUSH32 0x4E487B7100000000000000000000000000000000000000000000000000000000 PUSH0 MSTORE PUSH1 0x22 PUSH1 0x4 MSTORE PUSH1 0x24 PUSH0 REVERT JUMPDEST PUSH0 PUSH1 0x2 DUP3 DIV SWAP1 POP PUSH1 0x1 DUP3 AND DUP1 PUSH2 0x414 JUMPI PUSH1 0x7F DUP3 AND SWAP2 POP JUMPDEST PUSH1 0x20 DUP3 LT DUP2 SUB PUSH2 0x427 JUMPI PUSH2 0x426 PUSH2 0x3D0 JUMP JUMPDEST JUMPDEST POP SWAP2 SWAP1 POP JUMP JUMPDEST PUSH32 0x4170656E6173206F20646F6E6F20706F6465206368616D617220657374612066 PUSH0 DUP3 ADD MSTORE PUSH32 0x756E63616F000000000000000000000000000000000000000000000000000000 PUSH1 0x20 DUP3 ADD MSTORE POP JUMP JUMPDEST PUSH0 PUSH2 0x487 PUSH1 0x25 DUP4 PUSH2 0x1AC JUMP JUMPDEST SWAP2 POP PUSH2 0x492 DUP3 PUSH2 0x42D JUMP JUMPDEST PUSH1 0x40 DUP3 ADD SWAP1 POP SWAP2 SWAP1 POP JUMP JUMPDEST PUSH0 PUSH1 0x20 DUP3 ADD SWAP1 POP DUP2 DUP2 SUB PUSH0 DUP4 ADD MSTORE PUSH2 0x4B4 DUP2 PUSH2 0x47B JUMP JUMPDEST SWAP1 POP SWAP2 SWAP1 POP JUMP JUMPDEST PUSH0 DUP2 SWAP1 POP DUP2 PUSH0 MSTORE PUSH1 0x20 PUSH0 KECCAK256 SWAP1 POP SWAP2 SWAP1 POP JUMP JUMPDEST PUSH0 PUSH1 0x20 PUSH1 0x1F DUP4 ADD DIV SWAP1 POP SWAP2 SWAP1 POP JUMP JUMPDEST PUSH0 DUP3 DUP3 SHL SWAP1 POP SWAP3 SWAP2 POP POP JUMP JUMPDEST PUSH0 PUSH1 0x8 DUP4 MUL PUSH2 0x517 PUSH32 0xFFFFFFFFFFFFFFFFFFFFFFFFFFFFFFFFFFFFFFFFFFFFFFFFFFFFFFFFFFFFFFFF DUP3 PUSH2 0x4DC JUMP JUMPDEST PUSH2 0x521 DUP7 DUP4 PUSH2 0x4DC JUMP JUMPDEST SWAP6 POP DUP1 NOT DUP5 AND SWAP4 POP DUP1 DUP7 AND DUP5 OR SWAP3 POP POP POP SWAP4 SWAP3 POP POP POP JUMP JUMPDEST PUSH0 DUP2 SWAP1 POP SWAP2 SWAP1 POP JUMP JUMPDEST PUSH0 DUP2 SWAP1 POP SWAP2 SWAP1 POP JUMP JUMPDEST PUSH0 PUSH2 0x565 PUSH2 0x560 PUSH2 0x55B DUP5 PUSH2 0x539 JUMP JUMPDEST PUSH2 0x542 JUMP JUMPDEST PUSH2 0x539 JUMP JUMPDEST SWAP1 POP SWAP2 SWAP1 POP JUMP JUMPDEST PUSH0 DUP2 SWAP1 POP SWAP2 SWAP1 POP JUMP JUMPDEST PUSH2 0x57E DUP4 PUSH2 0x54B JUMP JUMPDEST PUSH2 0x592 PUSH2 0x58A DUP3 PUSH2 0x56C JUMP JUMPDEST DUP5 DUP5 SLOAD PUSH2 0x4E8 JUMP JUMPDEST DUP3 SSTORE POP POP POP POP JUMP JUMPDEST PUSH0 SWAP1 JUMP JUMPDEST PUSH2 0x5A6 PUSH2 0x59A JUMP JUMPDEST PUSH2 0x5B1 DUP2 DUP5 DUP5 PUSH2 0x575 JUMP JUMPDEST POP POP POP JUMP JUMPDEST JUMPDEST DUP2 DUP2 LT ISZERO PUSH2 0x5D4 JUMPI PUSH2 0x5C9 PUSH0 DUP3 PUSH2 0x59E JUMP JUMPDEST PUSH1 0x1 DUP2 ADD SWAP1 POP PUSH2 0x5B7 JUMP JUMPDEST POP POP JUMP JUMPDEST PUSH1 0x1F DUP3 GT ISZERO PUSH2 0x619 JUMPI PUSH2 0x5EA DUP2 PUSH2 0x4BB JUMP JUMPDEST PUSH2 0x5F3 DUP5 PUSH2 0x4CD JUMP JUMPDEST DUP2 ADD PUSH1 0x20 DUP6 LT ISZERO PUSH2 0x602 JUMPI DUP2 SWAP1 POP JUMPDEST PUSH2 0x616 PUSH2 0x60E DUP6 PUSH2 0x4CD JUMP JUMPDEST DUP4 ADD DUP3 PUSH2 0x5B6 JUMP JUMPDEST POP POP JUMPDEST POP POP POP JUMP JUMPDEST PUSH0 DUP3 DUP3 SHR SWAP1 POP SWAP3 SWAP2 POP POP JUMP JUMPDEST PUSH0 PUSH2 0x639 PUSH0 NOT DUP5 PUSH1 0x8 MUL PUSH2 0x61E JUMP JUMPDEST NOT DUP1 DUP4 AND SWAP2 POP POP SWAP3 SWAP2 POP POP JUMP JUMPDEST PUSH0 PUSH2 0x651 DUP4 DUP4 PUSH2 0x62A JUMP JUMPDEST SWAP2 POP DUP3 PUSH1 0x2 MUL DUP3 OR SWAP1 POP SWAP3 SWAP2 POP POP JUMP JUMPDEST PUSH2 0x66A DUP3 PUSH2 0x1A2 JUMP JUMPDEST PUSH8 0xFFFFFFFFFFFFFFFF DUP2 GT ISZERO PUSH2 0x683 JUMPI PUSH2 0x682 PUSH2 0x265 JUMP JUMPDEST JUMPDEST PUSH2 0x68D DUP3 SLOAD PUSH2 0x3FD JUMP JUMPDEST PUSH2 0x698 DUP3 DUP3 DUP6 PUSH2 0x5D8 JUMP JUMPDEST PUSH0 PUSH1 0x20 SWAP1 POP PUSH1 0x1F DUP4 GT PUSH1 0x1 DUP2 EQ PUSH2 0x6C9 JUMPI PUSH0 DUP5 ISZERO PUSH2 0x6B7 JUMPI DUP3 DUP8 ADD MLOAD SWAP1 POP JUMPDEST PUSH2 0x6C1 DUP6 DUP3 PUSH2 0x646 JUMP JUMPDEST DUP7 SSTORE POP PUSH2 0x728 JUMP JUMPDEST PUSH1 0x1F NOT DUP5 AND PUSH2 0x6D7 DUP7 PUSH2 0x4BB JUMP JUMPDEST PUSH0 JUMPDEST DUP3 DUP2 LT ISZERO PUSH2 0x6FE JUMPI DUP5 DUP10 ADD MLOAD DUP3 SSTORE PUSH1 0x1 DUP3 ADD SWAP2 POP PUSH1 0x20 DUP6 ADD SWAP5 POP PUSH1 0x20 DUP2 ADD SWAP1 POP PUSH2 0x6D9 JUMP JUMPDEST DUP7 DUP4 LT ISZERO PUSH2 0x71B JUMPI DUP5 DUP10 ADD MLOAD PUSH2 0x717 PUSH1 0x1F DUP10 AND DUP3 PUSH2 0x62A JUMP JUMPDEST DUP4 SSTORE POP JUMPDEST PUSH1 0x1 PUSH1 0x2 DUP9 MUL ADD DUP9 SSTORE POP POP POP JUMPDEST POP POP POP POP POP POP JUMP INVALID LOG2 PUSH5 0x6970667358 0x22 SLT KECCAK256 LOG3 EXTCODECOPY SWAP15 0xE2 LOG0 0xCB 0xD5 EQ 0xB2 CREATE2 CALL EXTCODESIZE 0x2A PUSH14 0x6DDD3DC8A0DB32890F242CAF5BC7 PUSH14 0x7C782764736F6C63430008170033 "
				},
				"gasEstimates": {
					"creation": {
						"codeDepositCost": "378800",
						"executionCost": "infinite",
						"totalCost": "infinite"
					},
					"external": {
						"guardar(string)": "infinite",
						"recuperar()": "infinite"
					}
				},
				"methodIdentifiers": {
					"guardar(string)": "f8ac37c5",
					"recuperar()": "b404ad1c"
				}
			},
			"storageLayout": {
				"storage": [
					{
						"astId": 48,
						"contract": "contracts/Armazenamento.sol:Armazenamento",
						"label": "dono",
						"offset": 0,
						"slot": "0",
						"type": "t_address"
					},
					{
						"astId": 10,
						"contract": "contracts/Armazenamento.sol:Armazenamento",
						"label": "armazenado",
						"offset": 0,
						"slot": "1",
						"type": "t_string_storage"
					}
				],
				"types": {
					"t_address": {
						"encoding": "inplace",
						"label": "address",
						"numberOfBytes": "20"
					},
					"t_string_storage": {
						"encoding": "bytes",
						"label": "string",
						"numberOfBytes": "32"
					}
				}
			},
			"userdoc": {
				"kind": "user",
				"methods": {},
				"version": 1
			}
		}
	}
}