{
	"data": {
		"bytecode": {
			"linkReferences": {},
			"object": "60806040526001600255348015610014575f80fd5b506040516200100d3803806200100d8339818101604052810190610038919061011b565b335f806101000a81548173ffffffffffffffffffffffffffffffffffffffff021916908373ffffffffffffffffffffffffffffffffffffffff1602179055508060035f6101000a81548173ffffffffffffffffffffffffffffffffffffffff021916908373ffffffffffffffffffffffffffffffffffffffff16021790555050610146565b5f80fd5b5f73ffffffffffffffffffffffffffffffffffffffff82169050919050565b5f6100ea826100c1565b9050919050565b6100fa816100e0565b8114610104575f80fd5b50565b5f81519050610115816100f1565b92915050565b5f602082840312156101305761012f6100bd565b5b5f61013d84828501610107565b91505092915050565b610eb980620001545f395ff3fe608060405260043610610054575f3560e01c80632c562a4414610058578063506e1d52146100805780635f6df038146100ab5780637cb02950146100c1578063faf9fe40146100dd578063fc0c546a14610107575b5f80fd5b348015610063575f80fd5b5061007e60048036038101906100799190610802565b610131565b005b34801561008b575f80fd5b506100946103d0565b6040516100a292919061084f565b60405180910390f35b3480156100b6575f80fd5b506100bf610458565b005b6100db60048036038101906100d69190610876565b610530565b005b3480156100e8575f80fd5b506100f16106cc565b6040516100fe91906109c5565b60405180910390f35b348015610112575f80fd5b5061011b6107a6565b6040516101289190610a5f565b60405180910390f35b5f8054906101000a900473ffffffffffffffffffffffffffffffffffffffff1673ffffffffffffffffffffffffffffffffffffffff163373ffffffffffffffffffffffffffffffffffffffff16146101be576040517f08c379a00000000000000000000000000000000000000000000000000000000081526004016101b590610af8565b60405180910390fd5b5f8211610200576040517f08c379a00000000000000000000000000000000000000000000000000000000081526004016101f790610b86565b60405180910390fd5b5f8111610242576040517f08c379a000000000000000000000000000000000000000000000000000000000815260040161023990610bee565b60405180910390fd5b60035f9054906101000a900473ffffffffffffffffffffffffffffffffffffffff1673ffffffffffffffffffffffffffffffffffffffff166323b872dd5f8054906101000a900473ffffffffffffffffffffffffffffffffffffffff1633856040518463ffffffff1660e01b81526004016102bf93929190610c2c565b6020604051808303815f875af11580156102db573d5f803e3d5ffd5b505050506040513d601f19601f820116820180604052508101906102ff9190610c8b565b505f604051806080016040528060025481526020018481526020018381526020016001151581525090508060015f60025481526020019081526020015f205f820151815f015560208201518160010155604082015181600201556060820151816003015f6101000a81548160ff0219169083151502179055509050507f65fed65ff7cd6b2d79d64e55d0439fba77cb42a9adabf9fa002ea4c20a1f81e160025f8154809291906103ae90610ce3565b9190505584846040516103c393929190610d2a565b60405180910390a1505050565b5f805f805f5b600254811161044b576001151560015f8381526020019081526020015f206003015f9054906101000a900460ff16151503610438575f82036104295760015f8281526020019081526020015f205f015491505b828061043490610ce3565b9350505b808061044390610ce3565b9150506103d6565b5081819350935050509091565b5f8054906101000a900473ffffffffffffffffffffffffffffffffffffffff1673ffffffffffffffffffffffffffffffffffffffff163373ffffffffffffffffffffffffffffffffffffffff16146104e5576040517f08c379a00000000000000000000000000000000000000000000000000000000081526004016104dc90610af8565b60405180910390fd5b5f3390508073ffffffffffffffffffffffffffffffffffffffff166108fc4790811502906040515f60405180830381858888f1935050505015801561052c573d5f803e3d5ffd5b5050565b3460015f8381526020019081526020015f206002015414610586576040517f08c379a000000000000000000000000000000000000000000000000000000000815260040161057d90610da9565b60405180910390fd5b6001151560015f8381526020019081526020015f206003015f9054906101000a900460ff161515146105ed576040517f08c379a00000000000000000000000000000000000000000000000000000000081526004016105e490610e11565b60405180910390fd5b60035f9054906101000a900473ffffffffffffffffffffffffffffffffffffffff1673ffffffffffffffffffffffffffffffffffffffff1663a9059cbb3360015f8581526020019081526020015f20600101546040518363ffffffff1660e01b815260040161065d929190610e2f565b6020604051808303815f875af1158015610679573d5f803e3d5ffd5b505050506040513d601f19601f8201168201806040525081019061069d9190610c8b565b505f60015f8381526020019081526020015f206003015f6101000a81548160ff02191690831515021790555050565b6060805f5b600254811161079e576001151560015f8381526020019081526020015f206003015f9054906101000a900460ff1615150361078b5760015f8281526020019081526020015f206040518060800160405290815f82015481526020016001820154815260200160028201548152602001600382015f9054906101000a900460ff1615151515815250508260015f8481526020019081526020015f205f01548151811061077f5761077e610e56565b5b60200260200101819052505b808061079690610ce3565b9150506106d1565b508091505090565b60035f9054906101000a900473ffffffffffffffffffffffffffffffffffffffff1681565b5f80fd5b5f819050919050565b6107e1816107cf565b81146107eb575f80fd5b50565b5f813590506107fc816107d8565b92915050565b5f8060408385031215610818576108176107cb565b5b5f610825858286016107ee565b9250506020610836858286016107ee565b9150509250929050565b610849816107cf565b82525050565b5f6040820190506108625f830185610840565b61086f6020830184610840565b9392505050565b5f6020828403121561088b5761088a6107cb565b5b5f610898848285016107ee565b91505092915050565b5f81519050919050565b5f82825260208201905092915050565b5f819050602082019050919050565b6108d3816107cf565b82525050565b5f8115159050919050565b6108ed816108d9565b82525050565b608082015f8201516109075f8501826108ca565b50602082015161091a60208501826108ca565b50604082015161092d60408501826108ca565b50606082015161094060608501826108e4565b50505050565b5f61095183836108f3565b60808301905092915050565b5f602082019050919050565b5f610973826108a1565b61097d81856108ab565b9350610988836108bb565b805f5b838110156109b857815161099f8882610946565b97506109aa8361095d565b92505060018101905061098b565b5085935050505092915050565b5f6020820190508181035f8301526109dd8184610969565b905092915050565b5f73ffffffffffffffffffffffffffffffffffffffff82169050919050565b5f819050919050565b5f610a27610a22610a1d846109e5565b610a04565b6109e5565b9050919050565b5f610a3882610a0d565b9050919050565b5f610a4982610a2e565b9050919050565b610a5981610a3f565b82525050565b5f602082019050610a725f830184610a50565b92915050565b5f82825260208201905092915050565b7f4170656e6173206f20646f6e6f20706f6465206368616d6172206573746120665f8201527f756e63616f000000000000000000000000000000000000000000000000000000602082015250565b5f610ae2602583610a78565b9150610aed82610a88565b604082019050919050565b5f6020820190508181035f830152610b0f81610ad6565b9050919050565b7f5175616e74696461646520646520546f6b656e73206d61696f7220717565207a5f8201527f65726f2e00000000000000000000000000000000000000000000000000000000602082015250565b5f610b70602483610a78565b9150610b7b82610b16565b604082019050919050565b5f6020820190508181035f830152610b9d81610b64565b9050919050565b7f507265c3a76f206465204c6f7465206d61696f7220717565207a65726f2e00005f82015250565b5f610bd8601e83610a78565b9150610be382610ba4565b602082019050919050565b5f6020820190508181035f830152610c0581610bcc565b9050919050565b5f610c16826109e5565b9050919050565b610c2681610c0c565b82525050565b5f606082019050610c3f5f830186610c1d565b610c4c6020830185610c1d565b610c596040830184610840565b949350505050565b610c6a816108d9565b8114610c74575f80fd5b50565b5f81519050610c8581610c61565b92915050565b5f60208284031215610ca057610c9f6107cb565b5b5f610cad84828501610c77565b91505092915050565b7f4e487b71000000000000000000000000000000000000000000000000000000005f52601160045260245ffd5b5f610ced826107cf565b91507fffffffffffffffffffffffffffffffffffffffffffffffffffffffffffffffff8203610d1f57610d1e610cb6565b5b600182019050919050565b5f606082019050610d3d5f830186610840565b610d4a6020830185610840565b610d576040830184610840565b949350505050565b7f507265c3a76f206465204c6f746520696e636f727265746f2e000000000000005f82015250565b5f610d93601983610a78565b9150610d9e82610d5f565b602082019050919050565b5f6020820190508181035f830152610dc081610d87565b9050919050565b7f4f6665727461206ec3a36f20646973706f6ec3ad76656c2e00000000000000005f82015250565b5f610dfb601883610a78565b9150610e0682610dc7565b602082019050919050565b5f6020820190508181035f830152610e2881610def565b9050919050565b5f604082019050610e425f830185610c1d565b610e4f6020830184610840565b9392505050565b7f4e487b71000000000000000000000000000000000000000000000000000000005f52603260045260245ffdfea2646970667358221220dd36363e2c8375cb38fe6f8570cbb39c12d17cae1503003fbd6bbcf6e12a379364736f6c63430008170033",
			"opcodes": "PUSH1 0x80 PUSH1 0x40 MSTORE PUSH1 0x1 PUSH1 0x2 SSTORE CALLVALUE DUP1 ISZERO PUSH2 0x14 JUMPI PUSH0 DUP1 REVERT JUMPDEST POP PUSH1 0x40 MLOAD PUSH3 0x100D CODESIZE SUB DUP1 PUSH3 0x100D DUP4 CODECOPY DUP2 DUP2 ADD PUSH1 0x40 MSTORE DUP2 ADD SWAP1 PUSH2 0x38 SWAP2 SWAP1 PUSH2 0x11B JUMP JUMPDEST CALLER PUSH0 DUP1 PUSH2 0x100 EXP DUP2 SLOAD DUP2 PUSH20 0xFFFFFFFFFFFFFFFFFFFFFFFFFFFFFFFFFFFFFFFF MUL NOT AND SWAP1 DUP4 PUSH20 0xFFFFFFFFFFFFFFFFFFFFFFFFFFFFFFFFFFFFFFFF AND MUL OR SWAP1 SSTORE POP DUP1 PUSH1 0x3 PUSH0 PUSH2 0x100 EXP DUP2 SLOAD DUP2 PUSH20 0xFFFFFFFFFFFFFFFFFFFFFFFFFFFFFFFFFFFFFFFF MUL NOT AND SWAP1 DUP4 PUSH20 0xFFFFFFFFFFFFFFFFFFFFFFFFFFFFFFFFFFFFFFFF AND MUL OR SWAP1 SSTORE POP POP PUSH2 0x146 JUMP JUMPDEST PUSH0 DUP1 REVERT JUMPDEST PUSH0 PUSH20 0xFFFFFFFFFFFFFFFFFFFFFFFFFFFFFFFFFFFFFFFF DUP3 AND SWAP1 POP SWAP2 SWAP1 POP JUMP JUMPDEST PUSH0 PUSH2 0xEA DUP3 PUSH2 0xC1 JUMP JUMPDEST SWAP1 POP SWAP2 SWAP1 POP JUMP JUMPDEST PUSH2 0xFA DUP2 PUSH2 0xE0 JUMP JUMPDEST DUP2 EQ PUSH2 0x104 JUMPI PUSH0 DUP1 REVERT JUMPDEST POP JUMP JUMPDEST PUSH0 DUP2 MLOAD SWAP1 POP PUSH2 0x115 DUP2 PUSH2 0xF1 JUMP JUMPDEST SWAP3 SWAP2 POP POP JUMP JUMPDEST PUSH0 PUSH1 0x20 DUP3 DUP5 SUB SLT ISZERO PUSH2 0x130 JUMPI PUSH2 0x12F PUSH2 0xBD JUMP JUMPDEST JUMPDEST PUSH0 PUSH2 0x13D DUP5 DUP3 DUP6 ADD PUSH2 0x107 JUMP JUMPDEST SWAP2 POP POP SWAP3 SWAP2 POP POP JUMP JUMPDEST PUSH2 0xEB9 DUP1 PUSH3 0x154 PUSH0 CODECOPY PUSH0 RETURN INVALID PUSH1 0x80 PUSH1 0x40 MSTORE PUSH1 0x4 CALLDATASIZE LT PUSH2 0x54 JUMPI PUSH0 CALLDATALOAD PUSH1 0xE0 SHR DUP1 PUSH4 0x2C562A44 EQ PUSH2 0x58 JUMPI DUP1 PUSH4 0x506E1D52 EQ PUSH2 0x80 JUMPI DUP1 PUSH4 0x5F6DF038 EQ PUSH2 0xAB JUMPI DUP1 PUSH4 0x7CB02950 EQ PUSH2 0xC1 JUMPI DUP1 PUSH4 0xFAF9FE40 EQ PUSH2 0xDD JUMPI DUP1 PUSH4 0xFC0C546A EQ PUSH2 0x107 JUMPI JUMPDEST PUSH0 DUP1 REVERT JUMPDEST CALLVALUE DUP1 ISZERO PUSH2 0x63 JUMPI PUSH0 DUP1 REVERT JUMPDEST POP PUSH2 0x7E PUSH1 0x4 DUP1 CALLDATASIZE SUB DUP2 ADD SWAP1 PUSH2 0x79 SWAP2 SWAP1 PUSH2 0x802 JUMP JUMPDEST PUSH2 0x131 JUMP JUMPDEST STOP JUMPDEST CALLVALUE DUP1 ISZERO PUSH2 0x8B JUMPI PUSH0 DUP1 REVERT JUMPDEST POP PUSH2 0x94 PUSH2 0x3D0 JUMP JUMPDEST PUSH1 0x40 MLOAD PUSH2 0xA2 SWAP3 SWAP2 SWAP1 PUSH2 0x84F JUMP JUMPDEST PUSH1 0x40 MLOAD DUP1 SWAP2 SUB SWAP1 RETURN JUMPDEST CALLVALUE DUP1 ISZERO PUSH2 0xB6 JUMPI PUSH0 DUP1 REVERT JUMPDEST POP PUSH2 0xBF PUSH2 0x458 JUMP JUMPDEST STOP JUMPDEST PUSH2 0xDB PUSH1 0x4 DUP1 CALLDATASIZE SUB DUP2 ADD SWAP1 PUSH2 0xD6 SWAP2 SWAP1 PUSH2 0x876 JUMP JUMPDEST PUSH2 0x530 JUMP JUMPDEST STOP JUMPDEST CALLVALUE DUP1 ISZERO PUSH2 0xE8 JUMPI PUSH0 DUP1 REVERT JUMPDEST POP PUSH2 0xF1 PUSH2 0x6CC JUMP JUMPDEST PUSH1 0x40 MLOAD PUSH2 0xFE SWAP2 SWAP1 PUSH2 0x9C5 JUMP JUMPDEST PUSH1 0x40 MLOAD DUP1 SWAP2 SUB SWAP1 RETURN JUMPDEST CALLVALUE DUP1 ISZERO PUSH2 0x112 JUMPI PUSH0 DUP1 REVERT JUMPDEST POP PUSH2 0x11B PUSH2 0x7A6 JUMP JUMPDEST PUSH1 0x40 MLOAD PUSH2 0x128 SWAP2 SWAP1 PUSH2 0xA5F JUMP JUMPDEST PUSH1 0x40 MLOAD DUP1 SWAP2 SUB SWAP1 RETURN JUMPDEST PUSH0 DUP1 SLOAD SWAP1 PUSH2 0x100 EXP SWAP1 DIV PUSH20 0xFFFFFFFFFFFFFFFFFFFFFFFFFFFFFFFFFFFFFFFF AND PUSH20 0xFFFFFFFFFFFFFFFFFFFFFFFFFFFFFFFFFFFFFFFF AND CALLER PUSH20 0xFFFFFFFFFFFFFFFFFFFFFFFFFFFFFFFFFFFFFFFF AND EQ PUSH2 0x1BE JUMPI PUSH1 0x40 MLOAD PUSH32 0x8C379A000000000000000000000000000000000000000000000000000000000 DUP2 MSTORE PUSH1 0x4 ADD PUSH2 0x1B5 SWAP1 PUSH2 0xAF8 JUMP JUMPDEST PUSH1 0x40 MLOAD DUP1 SWAP2 SUB SWAP1 REVERT JUMPDEST PUSH0 DUP3 GT PUSH2 0x200 JUMPI PUSH1 0x40 MLOAD PUSH32 0x8C379A000000000000000000000000000000000000000000000000000000000 DUP2 MSTORE PUSH1 0x4 ADD PUSH2 0x1F7 SWAP1 PUSH2 0xB86 JUMP JUMPDEST PUSH1 0x40 MLOAD DUP1 SWAP2 SUB SWAP1 REVERT JUMPDEST PUSH0 DUP2 GT PUSH2 0x242 JUMPI PUSH1 0x40 MLOAD PUSH32 0x8C379A000000000000000000000000000000000000000000000000000000000 DUP2 MSTORE PUSH1 0x4 ADD PUSH2 0x239 SWAP1 PUSH2 0xBEE JUMP JUMPDEST PUSH1 0x40 MLOAD DUP1 SWAP2 SUB SWAP1 REVERT JUMPDEST PUSH1 0x3 PUSH0 SWAP1 SLOAD SWAP1 PUSH2 0x100 EXP SWAP1 DIV PUSH20 0xFFFFFFFFFFFFFFFFFFFFFFFFFFFFFFFFFFFFFFFF AND PUSH20 0xFFFFFFFFFFFFFFFFFFFFFFFFFFFFFFFFFFFFFFFF AND PUSH4 0x23B872DD PUSH0 DUP1 SLOAD SWAP1 PUSH2 0x100 EXP SWAP1 DIV PUSH20 0xFFFFFFFFFFFFFFFFFFFFFFFFFFFFFFFFFFFFFFFF AND CALLER DUP6 PUSH1 0x40 MLOAD DUP5 PUSH4 0xFFFFFFFF AND PUSH1 0xE0 SHL DUP2 MSTORE PUSH1 0x4 ADD PUSH2 0x2BF SWAP4 SWAP3 SWAP2 SWAP1 PUSH2 0xC2C JUMP JUMPDEST PUSH1 0x20 PUSH1 0x40 MLOAD DUP1 DUP4 SUB DUP2 PUSH0 DUP8 GAS CALL ISZERO DUP1 ISZERO PUSH2 0x2DB JUMPI RETURNDATASIZE PUSH0 DUP1 RETURNDATACOPY RETURNDATASIZE PUSH0 REVERT JUMPDEST POP POP POP POP PUSH1 0x40 MLOAD RETURNDATASIZE PUSH1 0x1F NOT PUSH1 0x1F DUP3 ADD AND DUP3 ADD DUP1 PUSH1 0x40 MSTORE POP DUP2 ADD SWAP1 PUSH2 0x2FF SWAP2 SWAP1 PUSH2 0xC8B JUMP JUMPDEST POP PUSH0 PUSH1 0x40 MLOAD DUP1 PUSH1 0x80 ADD PUSH1 0x40 MSTORE DUP1 PUSH1 0x2 SLOAD DUP2 MSTORE PUSH1 0x20 ADD DUP5 DUP2 MSTORE PUSH1 0x20 ADD DUP4 DUP2 MSTORE PUSH1 0x20 ADD PUSH1 0x1 ISZERO ISZERO DUP2 MSTORE POP SWAP1 POP DUP1 PUSH1 0x1 PUSH0 PUSH1 0x2 SLOAD DUP2 MSTORE PUSH1 0x20 ADD SWAP1 DUP2 MSTORE PUSH1 0x20 ADD PUSH0 KECCAK256 PUSH0 DUP3 ADD MLOAD DUP2 PUSH0 ADD SSTORE PUSH1 0x20 DUP3 ADD MLOAD DUP2 PUSH1 0x1 ADD SSTORE PUSH1 0x40 DUP3 ADD MLOAD DUP2 PUSH1 0x2 ADD SSTORE PUSH1 0x60 DUP3 ADD MLOAD DUP2 PUSH1 0x3 ADD PUSH0 PUSH2 0x100 EXP DUP2 SLOAD DUP2 PUSH1 0xFF MUL NOT AND SWAP1 DUP4 ISZERO ISZERO MUL OR SWAP1 SSTORE POP SWAP1 POP POP PUSH32 0x65FED65FF7CD6B2D79D64E55D0439FBA77CB42A9ADABF9FA002EA4C20A1F81E1 PUSH1 0x2 PUSH0 DUP2 SLOAD DUP1 SWAP3 SWAP2 SWAP1 PUSH2 0x3AE SWAP1 PUSH2 0xCE3 JUMP JUMPDEST SWAP2 SWAP1 POP SSTORE DUP5 DUP5 PUSH1 0x40 MLOAD PUSH2 0x3C3 SWAP4 SWAP3 SWAP2 SWAP1 PUSH2 0xD2A JUMP JUMPDEST PUSH1 0x40 MLOAD DUP1 SWAP2 SUB SWAP1 LOG1 POP POP POP JUMP JUMPDEST PUSH0 DUP1 PUSH0 DUP1 PUSH0 JUMPDEST PUSH1 0x2 SLOAD DUP2 GT PUSH2 0x44B JUMPI PUSH1 0x1 ISZERO ISZERO PUSH1 0x1 PUSH0 DUP4 DUP2 MSTORE PUSH1 0x20 ADD SWAP1 DUP2 MSTORE PUSH1 0x20 ADD PUSH0 KECCAK256 PUSH1 0x3 ADD PUSH0 SWAP1 SLOAD SWAP1 PUSH2 0x100 EXP SWAP1 DIV PUSH1 0xFF AND ISZERO ISZERO SUB PUSH2 0x438 JUMPI PUSH0 DUP3 SUB PUSH2 0x429 JUMPI PUSH1 0x1 PUSH0 DUP3 DUP2 MSTORE PUSH1 0x20 ADD SWAP1 DUP2 MSTORE PUSH1 0x20 ADD PUSH0 KECCAK256 PUSH0 ADD SLOAD SWAP2 POP JUMPDEST DUP3 DUP1 PUSH2 0x434 SWAP1 PUSH2 0xCE3 JUMP JUMPDEST SWAP4 POP POP JUMPDEST DUP1 DUP1 PUSH2 0x443 SWAP1 PUSH2 0xCE3 JUMP JUMPDEST SWAP2 POP POP PUSH2 0x3D6 JUMP JUMPDEST POP DUP2 DUP2 SWAP4 POP SWAP4 POP POP POP SWAP1 SWAP2 JUMP JUMPDEST PUSH0 DUP1 SLOAD SWAP1 PUSH2 0x100 EXP SWAP1 DIV PUSH20 0xFFFFFFFFFFFFFFFFFFFFFFFFFFFFFFFFFFFFFFFF AND PUSH20 0xFFFFFFFFFFFFFFFFFFFFFFFFFFFFFFFFFFFFFFFF AND CALLER PUSH20 0xFFFFFFFFFFFFFFFFFFFFFFFFFFFFFFFFFFFFFFFF AND EQ PUSH2 0x4E5 JUMPI PUSH1 0x40 MLOAD PUSH32 0x8C379A000000000000000000000000000000000000000000000000000000000 DUP2 MSTORE PUSH1 0x4 ADD PUSH2 0x4DC SWAP1 PUSH2 0xAF8 JUMP JUMPDEST PUSH1 0x40 MLOAD DUP1 SWAP2 SUB SWAP1 REVERT JUMPDEST PUSH0 CALLER SWAP1 POP DUP1 PUSH20 0xFFFFFFFFFFFFFFFFFFFFFFFFFFFFFFFFFFFFFFFF AND PUSH2 0x8FC SELFBALANCE SWAP1 DUP2 ISZERO MUL SWAP1 PUSH1 0x40 MLOAD PUSH0 PUSH1 0x40 MLOAD DUP1 DUP4 SUB DUP2 DUP6 DUP9 DUP9 CALL SWAP4 POP POP POP POP ISZERO DUP1 ISZERO PUSH2 0x52C JUMPI RETURNDATASIZE PUSH0 DUP1 RETURNDATACOPY RETURNDATASIZE PUSH0 REVERT JUMPDEST POP POP JUMP JUMPDEST CALLVALUE PUSH1 0x1 PUSH0 DUP4 DUP2 MSTORE PUSH1 0x20 ADD SWAP1 DUP2 MSTORE PUSH1 0x20 ADD PUSH0 KECCAK256 PUSH1 0x2 ADD SLOAD EQ PUSH2 0x586 JUMPI PUSH1 0x40 MLOAD PUSH32 0x8C379A000000000000000000000000000000000000000000000000000000000 DUP2 MSTORE PUSH1 0x4 ADD PUSH2 0x57D SWAP1 PUSH2 0xDA9 JUMP JUMPDEST PUSH1 0x40 MLOAD DUP1 SWAP2 SUB SWAP1 REVERT JUMPDEST PUSH1 0x1 ISZERO ISZERO PUSH1 0x1 PUSH0 DUP4 DUP2 MSTORE PUSH1 0x20 ADD SWAP1 DUP2 MSTORE PUSH1 0x20 ADD PUSH0 KECCAK256 PUSH1 0x3 ADD PUSH0 SWAP1 SLOAD SWAP1 PUSH2 0x100 EXP SWAP1 DIV PUSH1 0xFF AND ISZERO ISZERO EQ PUSH2 0x5ED JUMPI PUSH1 0x40 MLOAD PUSH32 0x8C379A000000000000000000000000000000000000000000000000000000000 DUP2 MSTORE PUSH1 0x4 ADD PUSH2 0x5E4 SWAP1 PUSH2 0xE11 JUMP JUMPDEST PUSH1 0x40 MLOAD DUP1 SWAP2 SUB SWAP1 REVERT JUMPDEST PUSH1 0x3 PUSH0 SWAP1 SLOAD SWAP1 PUSH2 0x100 EXP SWAP1 DIV PUSH20 0xFFFFFFFFFFFFFFFFFFFFFFFFFFFFFFFFFFFFFFFF AND PUSH20 0xFFFFFFFFFFFFFFFFFFFFFFFFFFFFFFFFFFFFFFFF AND PUSH4 0xA9059CBB CALLER PUSH1 0x1 PUSH0 DUP6 DUP2 MSTORE PUSH1 0x20 ADD SWAP1 DUP2 MSTORE PUSH1 0x20 ADD PUSH0 KECCAK256 PUSH1 0x1 ADD SLOAD PUSH1 0x40 MLOAD DUP4 PUSH4 0xFFFFFFFF AND PUSH1 0xE0 SHL DUP2 MSTORE PUSH1 0x4 ADD PUSH2 0x65D SWAP3 SWAP2 SWAP1 PUSH2 0xE2F JUMP JUMPDEST PUSH1 0x20 PUSH1 0x40 MLOAD DUP1 DUP4 SUB DUP2 PUSH0 DUP8 GAS CALL ISZERO DUP1 ISZERO PUSH2 0x679 JUMPI RETURNDATASIZE PUSH0 DUP1 RETURNDATACOPY RETURNDATASIZE PUSH0 REVERT JUMPDEST POP POP POP POP PUSH1 0x40 MLOAD RETURNDATASIZE PUSH1 0x1F NOT PUSH1 0x1F DUP3 ADD AND DUP3 ADD DUP1 PUSH1 0x40 MSTORE POP DUP2 ADD SWAP1 PUSH2 0x69D SWAP2 SWAP1 PUSH2 0xC8B JUMP JUMPDEST POP PUSH0 PUSH1 0x1 PUSH0 DUP4 DUP2 MSTORE PUSH1 0x20 ADD SWAP1 DUP2 MSTORE PUSH1 0x20 ADD PUSH0 KECCAK256 PUSH1 0x3 ADD PUSH0 PUSH2 0x100 EXP DUP2 SLOAD DUP2 PUSH1 0xFF MUL NOT AND SWAP1 DUP4 ISZERO ISZERO MUL OR SWAP1 SSTORE POP POP JUMP JUMPDEST PUSH1 0x60 DUP1 PUSH0 JUMPDEST PUSH1 0x2 SLOAD DUP2 GT PUSH2 0x79E JUMPI PUSH1 0x1 ISZERO ISZERO PUSH1 0x1 PUSH0 DUP4 DUP2 MSTORE PUSH1 0x20 ADD SWAP1 DUP2 MSTORE PUSH1 0x20 ADD PUSH0 KECCAK256 PUSH1 0x3 ADD PUSH0 SWAP1 SLOAD SWAP1 PUSH2 0x100 EXP SWAP1 DIV PUSH1 0xFF AND ISZERO ISZERO SUB PUSH2 0x78B JUMPI PUSH1 0x1 PUSH0 DUP3 DUP2 MSTORE PUSH1 0x20 ADD SWAP1 DUP2 MSTORE PUSH1 0x20 ADD PUSH0 KECCAK256 PUSH1 0x40 MLOAD DUP1 PUSH1 0x80 ADD PUSH1 0x40 MSTORE SWAP1 DUP2 PUSH0 DUP3 ADD SLOAD DUP2 MSTORE PUSH1 0x20 ADD PUSH1 0x1 DUP3 ADD SLOAD DUP2 MSTORE PUSH1 0x20 ADD PUSH1 0x2 DUP3 ADD SLOAD DUP2 MSTORE PUSH1 0x20 ADD PUSH1 0x3 DUP3 ADD PUSH0 SWAP1 SLOAD SWAP1 PUSH2 0x100 EXP SWAP1 DIV PUSH1 0xFF AND ISZERO ISZERO ISZERO ISZERO DUP2 MSTORE POP POP DUP3 PUSH1 0x1 PUSH0 DUP5 DUP2 MSTORE PUSH1 0x20 ADD SWAP1 DUP2 MSTORE PUSH1 0x20 ADD PUSH0 KECCAK256 PUSH0 ADD SLOAD DUP2 MLOAD DUP2 LT PUSH2 0x77F JUMPI PUSH2 0x77E PUSH2 0xE56 JUMP JUMPDEST JUMPDEST PUSH1 0x20 MUL PUSH1 0x20 ADD ADD DUP2 SWAP1 MSTORE POP JUMPDEST DUP1 DUP1 PUSH2 0x796 SWAP1 PUSH2 0xCE3 JUMP JUMPDEST SWAP2 POP POP PUSH2 0x6D1 JUMP JUMPDEST POP DUP1 SWAP2 POP POP SWAP1 JUMP JUMPDEST PUSH1 0x3 PUSH0 SWAP1 SLOAD SWAP1 PUSH2 0x100 EXP SWAP1 DIV PUSH20 0xFFFFFFFFFFFFFFFFFFFFFFFFFFFFFFFFFFFFFFFF AND DUP2 JUMP JUMPDEST PUSH0 DUP1 REVERT JUMPDEST PUSH0 DUP2 SWAP1 POP SWAP2 SWAP1 POP JUMP JUMPDEST PUSH2 0x7E1 DUP2 PUSH2 0x7CF JUMP JUMPDEST DUP2 EQ PUSH2 0x7EB JUMPI PUSH0 DUP1 REVERT JUMPDEST POP JUMP JUMPDEST PUSH0 DUP2 CALLDATALOAD SWAP1 POP PUSH2 0x7FC DUP2 PUSH2 0x7D8 JUMP JUMPDEST SWAP3 SWAP2 POP POP JUMP JUMPDEST PUSH0 DUP1 PUSH1 0x40 DUP4 DUP6 SUB SLT ISZERO PUSH2 0x818 JUMPI PUSH2 0x817 PUSH2 0x7CB JUMP JUMPDEST JUMPDEST PUSH0 PUSH2 0x825 DUP6 DUP3 DUP7 ADD PUSH2 0x7EE JUMP JUMPDEST SWAP3 POP POP PUSH1 0x20 PUSH2 0x836 DUP6 DUP3 DUP7 ADD PUSH2 0x7EE JUMP JUMPDEST SWAP2 POP POP SWAP3 POP SWAP3 SWAP1 POP JUMP JUMPDEST PUSH2 0x849 DUP2 PUSH2 0x7CF JUMP JUMPDEST DUP3 MSTORE POP POP JUMP JUMPDEST PUSH0 PUSH1 0x40 DUP3 ADD SWAP1 POP PUSH2 0x862 PUSH0 DUP4 ADD DUP6 PUSH2 0x840 JUMP JUMPDEST PUSH2 0x86F PUSH1 0x20 DUP4 ADD DUP5 PUSH2 0x840 JUMP JUMPDEST SWAP4 SWAP3 POP POP POP JUMP JUMPDEST PUSH0 PUSH1 0x20 DUP3 DUP5 SUB SLT ISZERO PUSH2 0x88B JUMPI PUSH2 0x88A PUSH2 0x7CB JUMP JUMPDEST JUMPDEST PUSH0 PUSH2 0x898 DUP5 DUP3 DUP6 ADD PUSH2 0x7EE JUMP JUMPDEST SWAP2 POP POP SWAP3 SWAP2 POP POP JUMP JUMPDEST PUSH0 DUP2 MLOAD SWAP1 POP SWAP2 SWAP1 POP JUMP JUMPDEST PUSH0 DUP3 DUP3 MSTORE PUSH1 0x20 DUP3 ADD SWAP1 POP SWAP3 SWAP2 POP POP JUMP JUMPDEST PUSH0 DUP2 SWAP1 POP PUSH1 0x20 DUP3 ADD SWAP1 POP SWAP2 SWAP1 POP JUMP JUMPDEST PUSH2 0x8D3 DUP2 PUSH2 0x7CF JUMP JUMPDEST DUP3 MSTORE POP POP JUMP JUMPDEST PUSH0 DUP2 ISZERO ISZERO SWAP1 POP SWAP2 SWAP1 POP JUMP JUMPDEST PUSH2 0x8ED DUP2 PUSH2 0x8D9 JUMP JUMPDEST DUP3 MSTORE POP POP JUMP JUMPDEST PUSH1 0x80 DUP3 ADD PUSH0 DUP3 ADD MLOAD PUSH2 0x907 PUSH0 DUP6 ADD DUP3 PUSH2 0x8CA JUMP JUMPDEST POP PUSH1 0x20 DUP3 ADD MLOAD PUSH2 0x91A PUSH1 0x20 DUP6 ADD DUP3 PUSH2 0x8CA JUMP JUMPDEST POP PUSH1 0x40 DUP3 ADD MLOAD PUSH2 0x92D PUSH1 0x40 DUP6 ADD DUP3 PUSH2 0x8CA JUMP JUMPDEST POP PUSH1 0x60 DUP3 ADD MLOAD PUSH2 0x940 PUSH1 0x60 DUP6 ADD DUP3 PUSH2 0x8E4 JUMP JUMPDEST POP POP POP POP JUMP JUMPDEST PUSH0 PUSH2 0x951 DUP4 DUP4 PUSH2 0x8F3 JUMP JUMPDEST PUSH1 0x80 DUP4 ADD SWAP1 POP SWAP3 SWAP2 POP POP JUMP JUMPDEST PUSH0 PUSH1 0x20 DUP3 ADD SWAP1 POP SWAP2 SWAP1 POP JUMP JUMPDEST PUSH0 PUSH2 0x973 DUP3 PUSH2 0x8A1 JUMP JUMPDEST PUSH2 0x97D DUP2 DUP6 PUSH2 0x8AB JUMP JUMPDEST SWAP4 POP PUSH2 0x988 DUP4 PUSH2 0x8BB JUMP JUMPDEST DUP1 PUSH0 JUMPDEST DUP4 DUP2 LT ISZERO PUSH2 0x9B8 JUMPI DUP2 MLOAD PUSH2 0x99F DUP9 DUP3 PUSH2 0x946 JUMP JUMPDEST SWAP8 POP PUSH2 0x9AA DUP4 PUSH2 0x95D JUMP JUMPDEST SWAP3 POP POP PUSH1 0x1 DUP2 ADD SWAP1 POP PUSH2 0x98B JUMP JUMPDEST POP DUP6 SWAP4 POP POP POP POP SWAP3 SWAP2 POP POP JUMP JUMPDEST PUSH0 PUSH1 0x20 DUP3 ADD SWAP1 POP DUP2 DUP2 SUB PUSH0 DUP4 ADD MSTORE PUSH2 0x9DD DUP2 DUP5 PUSH2 0x969 JUMP JUMPDEST SWAP1 POP SWAP3 SWAP2 POP POP JUMP JUMPDEST PUSH0 PUSH20 0xFFFFFFFFFFFFFFFFFFFFFFFFFFFFFFFFFFFFFFFF DUP3 AND SWAP1 POP SWAP2 SWAP1 POP JUMP JUMPDEST PUSH0 DUP2 SWAP1 POP SWAP2 SWAP1 POP JUMP JUMPDEST PUSH0 PUSH2 0xA27 PUSH2 0xA22 PUSH2 0xA1D DUP5 PUSH2 0x9E5 JUMP JUMPDEST PUSH2 0xA04 JUMP JUMPDEST PUSH2 0x9E5 JUMP JUMPDEST SWAP1 POP SWAP2 SWAP1 POP JUMP JUMPDEST PUSH0 PUSH2 0xA38 DUP3 PUSH2 0xA0D JUMP JUMPDEST SWAP1 POP SWAP2 SWAP1 POP JUMP JUMPDEST PUSH0 PUSH2 0xA49 DUP3 PUSH2 0xA2E JUMP JUMPDEST SWAP1 POP SWAP2 SWAP1 POP JUMP JUMPDEST PUSH2 0xA59 DUP2 PUSH2 0xA3F JUMP JUMPDEST DUP3 MSTORE POP POP JUMP JUMPDEST PUSH0 PUSH1 0x20 DUP3 ADD SWAP1 POP PUSH2 0xA72 PUSH0 DUP4 ADD DUP5 PUSH2 0xA50 JUMP JUMPDEST SWAP3 SWAP2 POP POP JUMP JUMPDEST PUSH0 DUP3 DUP3 MSTORE PUSH1 0x20 DUP3 ADD SWAP1 POP SWAP3 SWAP2 POP POP JUMP JUMPDEST PUSH32 0x4170656E6173206F20646F6E6F20706F6465206368616D617220657374612066 PUSH0 DUP3 ADD MSTORE PUSH32 0x756E63616F000000000000000000000000000000000000000000000000000000 PUSH1 0x20 DUP3 ADD MSTORE POP JUMP JUMPDEST PUSH0 PUSH2 0xAE2 PUSH1 0x25 DUP4 PUSH2 0xA78 JUMP JUMPDEST SWAP2 POP PUSH2 0xAED DUP3 PUSH2 0xA88 JUMP JUMPDEST PUSH1 0x40 DUP3 ADD SWAP1 POP SWAP2 SWAP1 POP JUMP JUMPDEST PUSH0 PUSH1 0x20 DUP3 ADD SWAP1 POP DUP2 DUP2 SUB PUSH0 DUP4 ADD MSTORE PUSH2 0xB0F DUP2 PUSH2 0xAD6 JUMP JUMPDEST SWAP1 POP SWAP2 SWAP1 POP JUMP JUMPDEST PUSH32 0x5175616E74696461646520646520546F6B656E73206D61696F7220717565207A PUSH0 DUP3 ADD MSTORE PUSH32 0x65726F2E00000000000000000000000000000000000000000000000000000000 PUSH1 0x20 DUP3 ADD MSTORE POP JUMP JUMPDEST PUSH0 PUSH2 0xB70 PUSH1 0x24 DUP4 PUSH2 0xA78 JUMP JUMPDEST SWAP2 POP PUSH2 0xB7B DUP3 PUSH2 0xB16 JUMP JUMPDEST PUSH1 0x40 DUP3 ADD SWAP1 POP SWAP2 SWAP1 POP JUMP JUMPDEST PUSH0 PUSH1 0x20 DUP3 ADD SWAP1 POP DUP2 DUP2 SUB PUSH0 DUP4 ADD MSTORE PUSH2 0xB9D DUP2 PUSH2 0xB64 JUMP JUMPDEST SWAP1 POP SWAP2 SWAP1 POP JUMP JUMPDEST PUSH32 0x507265C3A76F206465204C6F7465206D61696F7220717565207A65726F2E0000 PUSH0 DUP3 ADD MSTORE POP JUMP JUMPDEST PUSH0 PUSH2 0xBD8 PUSH1 0x1E DUP4 PUSH2 0xA78 JUMP JUMPDEST SWAP2 POP PUSH2 0xBE3 DUP3 PUSH2 0xBA4 JUMP JUMPDEST PUSH1 0x20 DUP3 ADD SWAP1 POP SWAP2 SWAP1 POP JUMP JUMPDEST PUSH0 PUSH1 0x20 DUP3 ADD SWAP1 POP DUP2 DUP2 SUB PUSH0 DUP4 ADD MSTORE PUSH2 0xC05 DUP2 PUSH2 0xBCC JUMP JUMPDEST SWAP1 POP SWAP2 SWAP1 POP JUMP JUMPDEST PUSH0 PUSH2 0xC16 DUP3 PUSH2 0x9E5 JUMP JUMPDEST SWAP1 POP SWAP2 SWAP1 POP JUMP JUMPDEST PUSH2 0xC26 DUP2 PUSH2 0xC0C JUMP JUMPDEST DUP3 MSTORE POP POP JUMP JUMPDEST PUSH0 PUSH1 0x60 DUP3 ADD SWAP1 POP PUSH2 0xC3F PUSH0 DUP4 ADD DUP7 PUSH2 0xC1D JUMP JUMPDEST PUSH2 0xC4C PUSH1 0x20 DUP4 ADD DUP6 PUSH2 0xC1D JUMP JUMPDEST PUSH2 0xC59 PUSH1 0x40 DUP4 ADD DUP5 PUSH2 0x840 JUMP JUMPDEST SWAP5 SWAP4 POP POP POP POP JUMP JUMPDEST PUSH2 0xC6A DUP2 PUSH2 0x8D9 JUMP JUMPDEST DUP2 EQ PUSH2 0xC74 JUMPI PUSH0 DUP1 REVERT JUMPDEST POP JUMP JUMPDEST PUSH0 DUP2 MLOAD SWAP1 POP PUSH2 0xC85 DUP2 PUSH2 0xC61 JUMP JUMPDEST SWAP3 SWAP2 POP POP JUMP JUMPDEST PUSH0 PUSH1 0x20 DUP3 DUP5 SUB SLT ISZERO PUSH2 0xCA0 JUMPI PUSH2 0xC9F PUSH2 0x7CB JUMP JUMPDEST JUMPDEST PUSH0 PUSH2 0xCAD DUP5 DUP3 DUP6 ADD PUSH2 0xC77 JUMP JUMPDEST SWAP2 POP POP SWAP3 SWAP2 POP POP JUMP JUMPDEST PUSH32 0x4E487B7100000000000000000000000000000000000000000000000000000000 PUSH0 MSTORE PUSH1 0x11 PUSH1 0x4 MSTORE PUSH1 0x24 PUSH0 REVERT JUMPDEST PUSH0 PUSH2 0xCED DUP3 PUSH2 0x7CF JUMP JUMPDEST SWAP2 POP PUSH32 0xFFFFFFFFFFFFFFFFFFFFFFFFFFFFFFFFFFFFFFFFFFFFFFFFFFFFFFFFFFFFFFFF DUP3 SUB PUSH2 0xD1F JUMPI PUSH2 0xD1E PUSH2 0xCB6 JUMP JUMPDEST JUMPDEST PUSH1 0x1 DUP3 ADD SWAP1 POP SWAP2 SWAP1 POP JUMP JUMPDEST PUSH0 PUSH1 0x60 DUP3 ADD SWAP1 POP PUSH2 0xD3D PUSH0 DUP4 ADD DUP7 PUSH2 0x840 JUMP JUMPDEST PUSH2 0xD4A PUSH1 0x20 DUP4 ADD DUP6 PUSH2 0x840 JUMP JUMPDEST PUSH2 0xD57 PUSH1 0x40 DUP4 ADD DUP5 PUSH2 0x840 JUMP JUMPDEST SWAP5 SWAP4 POP POP POP POP JUMP JUMPDEST PUSH32 0x507265C3A76F206465204C6F746520696E636F727265746F2E00000000000000 PUSH0 DUP3 ADD MSTORE POP JUMP JUMPDEST PUSH0 PUSH2 0xD93 PUSH1 0x19 DUP4 PUSH2 0xA78 JUMP JUMPDEST SWAP2 POP PUSH2 0xD9E DUP3 PUSH2 0xD5F JUMP JUMPDEST PUSH1 0x20 DUP3 ADD SWAP1 POP SWAP2 SWAP1 POP JUMP JUMPDEST PUSH0 PUSH1 0x20 DUP3 ADD SWAP1 POP DUP2 DUP2 SUB PUSH0 DUP4 ADD MSTORE PUSH2 0xDC0 DUP2 PUSH2 0xD87 JUMP JUMPDEST SWAP1 POP SWAP2 SWAP1 POP JUMP JUMPDEST PUSH32 0x4F6665727461206EC3A36F20646973706F6EC3AD76656C2E0000000000000000 PUSH0 DUP3 ADD MSTORE POP JUMP JUMPDEST PUSH0 PUSH2 0xDFB PUSH1 0x18 DUP4 PUSH2 0xA78 JUMP JUMPDEST SWAP2 POP PUSH2 0xE06 DUP3 PUSH2 0xDC7 JUMP JUMPDEST PUSH1 0x20 DUP3 ADD SWAP1 POP SWAP2 SWAP1 POP JUMP JUMPDEST PUSH0 PUSH1 0x20 DUP3 ADD SWAP1 POP DUP2 DUP2 SUB PUSH0 DUP4 ADD MSTORE PUSH2 0xE28 DUP2 PUSH2 0xDEF JUMP JUMPDEST SWAP1 POP SWAP2 SWAP1 POP JUMP JUMPDEST PUSH0 PUSH1 0x40 DUP3 ADD SWAP1 POP PUSH2 0xE42 PUSH0 DUP4 ADD DUP6 PUSH2 0xC1D JUMP JUMPDEST PUSH2 0xE4F PUSH1 0x20 DUP4 ADD DUP5 PUSH2 0x840 JUMP JUMPDEST SWAP4 SWAP3 POP POP POP JUMP JUMPDEST PUSH32 0x4E487B7100000000000000000000000000000000000000000000000000000000 PUSH0 MSTORE PUSH1 0x32 PUSH1 0x4 MSTORE PUSH1 0x24 PUSH0 REVERT INVALID LOG2 PUSH5 0x6970667358 0x22 SLT KECCAK256 0xDD CALLDATASIZE CALLDATASIZE RETURNDATACOPY 0x2C DUP4 PUSH22 0xCB38FE6F8570CBB39C12D17CAE1503003FBD6BBCF6E1 0x2A CALLDATACOPY SWAP4 PUSH5 0x736F6C6343 STOP ADDMOD OR STOP CALLER "
		},
		"gasEstimates": {
			"creation": {
				"codeDepositCost": "753800",
				"executionCost": "infinite",
				"totalCost": "infinite"
			},
			"external": {
				"compra(uint256)": "infinite",
				"consultaOfertas()": "infinite",
				"listaOfertas()": "infinite",
				"realizaOferta(uint256,uint256)": "infinite",
				"sacarFundos()": "infinite",
				"token()": "infinite"
			}
		},
		"methodIdentifiers": {
			"compra(uint256)": "7cb02950",
			"consultaOfertas()": "506e1d52",
			"listaOfertas()": "faf9fe40",
			"realizaOferta(uint256,uint256)": "2c562a44",
			"sacarFundos()": "5f6df038",
			"token()": "fc0c546a"
		}
	},
	"abi": [
		{
			"inputs": [
				{
					"internalType": "address",
					"name": "uid",
					"type": "address"
				}
			],
			"stateMutability": "nonpayable",
			"type": "constructor"
		},
		{
			"anonymous": false,
			"inputs": [
				{
					"indexed": false,
					"internalType": "uint256",
					"name": "ultimaOfertaAdicionada",
					"type": "uint256"
				},
				{
					"indexed": false,
					"internalType": "uint256",
					"name": "quantidade",
					"type": "uint256"
				},
				{
					"indexed": false,
					"internalType": "uint256",
					"name": "preco",
					"type": "uint256"
				}
			],
			"name": "ofertaRealizada",
			"type": "event"
		},
		{
			"inputs": [
				{
					"internalType": "uint256",
					"name": "id",
					"type": "uint256"
				}
			],
			"name": "compra",
			"outputs": [],
			"stateMutability": "payable",
			"type": "function"
		},
		{
			"inputs": [],
			"name": "consultaOfertas",
			"outputs": [
				{
					"internalType": "uint256",
					"name": "",
					"type": "uint256"
				},
				{
					"internalType": "uint256",
					"name": "",
					"type": "uint256"
				}
			],
			"stateMutability": "view",
			"type": "function"
		},
		{
			"inputs": [],
			"name": "listaOfertas",
			"outputs": [
				{
					"components": [
						{
							"internalType": "uint256",
							"name": "id",
							"type": "uint256"
						},
						{
							"internalType": "uint256",
							"name": "quantidadeTokens",
							"type": "uint256"
						},
						{
							"internalType": "uint256",
							"name": "precoLote",
							"type": "uint256"
						},
						{
							"internalType": "bool",
							"name": "status",
							"type": "bool"
						}
					],
					"internalType": "struct CasaDeCambio.Oferta[]",
					"name": "",
					"type": "tuple[]"
				}
			],
			"stateMutability": "view",
			"type": "function"
		},
		{
			"inputs": [
				{
					"internalType": "uint256",
					"name": "_quantidadeTokens",
					"type": "uint256"
				},
				{
					"internalType": "uint256",
					"name": "_precoLote",
					"type": "uint256"
				}
			],
			"name": "realizaOferta",
			"outputs": [],
			"stateMutability": "nonpayable",
			"type": "function"
		},
		{
			"inputs": [],
			"name": "sacarFundos",
			"outputs": [],
			"stateMutability": "nonpayable",
			"type": "function"
		},
		{
			"inputs": [],
			"name": "token",
			"outputs": [
				{
					"internalType": "contract OWFToken",
					"name": "",
					"type": "address"
				}
			],
			"stateMutability": "view",
			"type": "function"
		}
	]
}