{
	"data": {
		"bytecode": {
			"linkReferences": {},
			"object": "608060405234801561000f575f80fd5b506104348061001d5f395ff3fe608060405234801561000f575f80fd5b506004361061004a575f3560e01c806312daf0e21461004e578063618d09bf1461007e5780637a26d9d3146100ae578063cad0899b146100cc575b5f80fd5b610068600480360381019061006391906101e2565b6100e8565b6040516100759190610227565b60405180910390f35b610098600480360381019061009391906101e2565b61010e565b6040516100a5919061024f565b60405180910390f35b6100b6610156565b6040516100c3919061024f565b60405180910390f35b6100e660048036038101906100e19190610268565b61015e565b005b5f806002836100f791906102d3565b036101055760019050610109565b5f90505b919050565b5f808290505f6001846101219190610330565b90505b5f811461014c5780826101379190610363565b91508080610144906103a4565b915050610124565b5080915050919050565b5f8054905090565b808261016a91906103cb565b5f819055507fae52261bebed2d3f10175dd7f0a6aaa838bf966d33fd6e13f427ac744a72840b5f5460405161019f919061024f565b60405180910390a15050565b5f80fd5b5f819050919050565b6101c1816101af565b81146101cb575f80fd5b50565b5f813590506101dc816101b8565b92915050565b5f602082840312156101f7576101f66101ab565b5b5f610204848285016101ce565b91505092915050565b5f8115159050919050565b6102218161020d565b82525050565b5f60208201905061023a5f830184610218565b92915050565b610249816101af565b82525050565b5f6020820190506102625f830184610240565b92915050565b5f806040838503121561027e5761027d6101ab565b5b5f61028b858286016101ce565b925050602061029c858286016101ce565b9150509250929050565b7f4e487b71000000000000000000000000000000000000000000000000000000005f52601260045260245ffd5b5f6102dd826101af565b91506102e8836101af565b9250826102f8576102f76102a6565b5b828206905092915050565b7f4e487b71000000000000000000000000000000000000000000000000000000005f52601160045260245ffd5b5f61033a826101af565b9150610345836101af565b925082820390508181111561035d5761035c610303565b5b92915050565b5f61036d826101af565b9150610378836101af565b9250828202610386816101af565b9150828204841483151761039d5761039c610303565b5b5092915050565b5f6103ae826101af565b91505f82036103c0576103bf610303565b5b600182039050919050565b5f6103d5826101af565b91506103e0836101af565b92508282019050808211156103f8576103f7610303565b5b9291505056fea26469706673582212201fcf77679b383adb4b962d1f3690a7c7dbd575a03b57041ba25881ac31dcc6fb64736f6c63430008170033",
			"opcodes": "PUSH1 0x80 PUSH1 0x40 MSTORE CALLVALUE DUP1 ISZERO PUSH2 0xF JUMPI PUSH0 DUP1 REVERT JUMPDEST POP PUSH2 0x434 DUP1 PUSH2 0x1D PUSH0 CODECOPY PUSH0 RETURN INVALID PUSH1 0x80 PUSH1 0x40 MSTORE CALLVALUE DUP1 ISZERO PUSH2 0xF JUMPI PUSH0 DUP1 REVERT JUMPDEST POP PUSH1 0x4 CALLDATASIZE LT PUSH2 0x4A JUMPI PUSH0 CALLDATALOAD PUSH1 0xE0 SHR DUP1 PUSH4 0x12DAF0E2 EQ PUSH2 0x4E JUMPI DUP1 PUSH4 0x618D09BF EQ PUSH2 0x7E JUMPI DUP1 PUSH4 0x7A26D9D3 EQ PUSH2 0xAE JUMPI DUP1 PUSH4 0xCAD0899B EQ PUSH2 0xCC JUMPI JUMPDEST PUSH0 DUP1 REVERT JUMPDEST PUSH2 0x68 PUSH1 0x4 DUP1 CALLDATASIZE SUB DUP2 ADD SWAP1 PUSH2 0x63 SWAP2 SWAP1 PUSH2 0x1E2 JUMP JUMPDEST PUSH2 0xE8 JUMP JUMPDEST PUSH1 0x40 MLOAD PUSH2 0x75 SWAP2 SWAP1 PUSH2 0x227 JUMP JUMPDEST PUSH1 0x40 MLOAD DUP1 SWAP2 SUB SWAP1 RETURN JUMPDEST PUSH2 0x98 PUSH1 0x4 DUP1 CALLDATASIZE SUB DUP2 ADD SWAP1 PUSH2 0x93 SWAP2 SWAP1 PUSH2 0x1E2 JUMP JUMPDEST PUSH2 0x10E JUMP JUMPDEST PUSH1 0x40 MLOAD PUSH2 0xA5 SWAP2 SWAP1 PUSH2 0x24F JUMP JUMPDEST PUSH1 0x40 MLOAD DUP1 SWAP2 SUB SWAP1 RETURN JUMPDEST PUSH2 0xB6 PUSH2 0x156 JUMP JUMPDEST PUSH1 0x40 MLOAD PUSH2 0xC3 SWAP2 SWAP1 PUSH2 0x24F JUMP JUMPDEST PUSH1 0x40 MLOAD DUP1 SWAP2 SUB SWAP1 RETURN JUMPDEST PUSH2 0xE6 PUSH1 0x4 DUP1 CALLDATASIZE SUB DUP2 ADD SWAP1 PUSH2 0xE1 SWAP2 SWAP1 PUSH2 0x268 JUMP JUMPDEST PUSH2 0x15E JUMP JUMPDEST STOP JUMPDEST PUSH0 DUP1 PUSH1 0x2 DUP4 PUSH2 0xF7 SWAP2 SWAP1 PUSH2 0x2D3 JUMP JUMPDEST SUB PUSH2 0x105 JUMPI PUSH1 0x1 SWAP1 POP PUSH2 0x109 JUMP JUMPDEST PUSH0 SWAP1 POP JUMPDEST SWAP2 SWAP1 POP JUMP JUMPDEST PUSH0 DUP1 DUP3 SWAP1 POP PUSH0 PUSH1 0x1 DUP5 PUSH2 0x121 SWAP2 SWAP1 PUSH2 0x330 JUMP JUMPDEST SWAP1 POP JUMPDEST PUSH0 DUP2 EQ PUSH2 0x14C JUMPI DUP1 DUP3 PUSH2 0x137 SWAP2 SWAP1 PUSH2 0x363 JUMP JUMPDEST SWAP2 POP DUP1 DUP1 PUSH2 0x144 SWAP1 PUSH2 0x3A4 JUMP JUMPDEST SWAP2 POP POP PUSH2 0x124 JUMP JUMPDEST POP DUP1 SWAP2 POP POP SWAP2 SWAP1 POP JUMP JUMPDEST PUSH0 DUP1 SLOAD SWAP1 POP SWAP1 JUMP JUMPDEST DUP1 DUP3 PUSH2 0x16A SWAP2 SWAP1 PUSH2 0x3CB JUMP JUMPDEST PUSH0 DUP2 SWAP1 SSTORE POP PUSH32 0xAE52261BEBED2D3F10175DD7F0A6AAA838BF966D33FD6E13F427AC744A72840B PUSH0 SLOAD PUSH1 0x40 MLOAD PUSH2 0x19F SWAP2 SWAP1 PUSH2 0x24F JUMP JUMPDEST PUSH1 0x40 MLOAD DUP1 SWAP2 SUB SWAP1 LOG1 POP POP JUMP JUMPDEST PUSH0 DUP1 REVERT JUMPDEST PUSH0 DUP2 SWAP1 POP SWAP2 SWAP1 POP JUMP JUMPDEST PUSH2 0x1C1 DUP2 PUSH2 0x1AF JUMP JUMPDEST DUP2 EQ PUSH2 0x1CB JUMPI PUSH0 DUP1 REVERT JUMPDEST POP JUMP JUMPDEST PUSH0 DUP2 CALLDATALOAD SWAP1 POP PUSH2 0x1DC DUP2 PUSH2 0x1B8 JUMP JUMPDEST SWAP3 SWAP2 POP POP JUMP JUMPDEST PUSH0 PUSH1 0x20 DUP3 DUP5 SUB SLT ISZERO PUSH2 0x1F7 JUMPI PUSH2 0x1F6 PUSH2 0x1AB JUMP JUMPDEST JUMPDEST PUSH0 PUSH2 0x204 DUP5 DUP3 DUP6 ADD PUSH2 0x1CE JUMP JUMPDEST SWAP2 POP POP SWAP3 SWAP2 POP POP JUMP JUMPDEST PUSH0 DUP2 ISZERO ISZERO SWAP1 POP SWAP2 SWAP1 POP JUMP JUMPDEST PUSH2 0x221 DUP2 PUSH2 0x20D JUMP JUMPDEST DUP3 MSTORE POP POP JUMP JUMPDEST PUSH0 PUSH1 0x20 DUP3 ADD SWAP1 POP PUSH2 0x23A PUSH0 DUP4 ADD DUP5 PUSH2 0x218 JUMP JUMPDEST SWAP3 SWAP2 POP POP JUMP JUMPDEST PUSH2 0x249 DUP2 PUSH2 0x1AF JUMP JUMPDEST DUP3 MSTORE POP POP JUMP JUMPDEST PUSH0 PUSH1 0x20 DUP3 ADD SWAP1 POP PUSH2 0x262 PUSH0 DUP4 ADD DUP5 PUSH2 0x240 JUMP JUMPDEST SWAP3 SWAP2 POP POP JUMP JUMPDEST PUSH0 DUP1 PUSH1 0x40 DUP4 DUP6 SUB SLT ISZERO PUSH2 0x27E JUMPI PUSH2 0x27D PUSH2 0x1AB JUMP JUMPDEST JUMPDEST PUSH0 PUSH2 0x28B DUP6 DUP3 DUP7 ADD PUSH2 0x1CE JUMP JUMPDEST SWAP3 POP POP PUSH1 0x20 PUSH2 0x29C DUP6 DUP3 DUP7 ADD PUSH2 0x1CE JUMP JUMPDEST SWAP2 POP POP SWAP3 POP SWAP3 SWAP1 POP JUMP JUMPDEST PUSH32 0x4E487B7100000000000000000000000000000000000000000000000000000000 PUSH0 MSTORE PUSH1 0x12 PUSH1 0x4 MSTORE PUSH1 0x24 PUSH0 REVERT JUMPDEST PUSH0 PUSH2 0x2DD DUP3 PUSH2 0x1AF JUMP JUMPDEST SWAP2 POP PUSH2 0x2E8 DUP4 PUSH2 0x1AF JUMP JUMPDEST SWAP3 POP DUP3 PUSH2 0x2F8 JUMPI PUSH2 0x2F7 PUSH2 0x2A6 JUMP JUMPDEST JUMPDEST DUP3 DUP3 MOD SWAP1 POP SWAP3 SWAP2 POP POP JUMP JUMPDEST PUSH32 0x4E487B7100000000000000000000000000000000000000000000000000000000 PUSH0 MSTORE PUSH1 0x11 PUSH1 0x4 MSTORE PUSH1 0x24 PUSH0 REVERT JUMPDEST PUSH0 PUSH2 0x33A DUP3 PUSH2 0x1AF JUMP JUMPDEST SWAP2 POP PUSH2 0x345 DUP4 PUSH2 0x1AF JUMP JUMPDEST SWAP3 POP DUP3 DUP3 SUB SWAP1 POP DUP2 DUP2 GT ISZERO PUSH2 0x35D JUMPI PUSH2 0x35C PUSH2 0x303 JUMP JUMPDEST JUMPDEST SWAP3 SWAP2 POP POP JUMP JUMPDEST PUSH0 PUSH2 0x36D DUP3 PUSH2 0x1AF JUMP JUMPDEST SWAP2 POP PUSH2 0x378 DUP4 PUSH2 0x1AF JUMP JUMPDEST SWAP3 POP DUP3 DUP3 MUL PUSH2 0x386 DUP2 PUSH2 0x1AF JUMP JUMPDEST SWAP2 POP DUP3 DUP3 DIV DUP5 EQ DUP4 ISZERO OR PUSH2 0x39D JUMPI PUSH2 0x39C PUSH2 0x303 JUMP JUMPDEST JUMPDEST POP SWAP3 SWAP2 POP POP JUMP JUMPDEST PUSH0 PUSH2 0x3AE DUP3 PUSH2 0x1AF JUMP JUMPDEST SWAP2 POP PUSH0 DUP3 SUB PUSH2 0x3C0 JUMPI PUSH2 0x3BF PUSH2 0x303 JUMP JUMPDEST JUMPDEST PUSH1 0x1 DUP3 SUB SWAP1 POP SWAP2 SWAP1 POP JUMP JUMPDEST PUSH0 PUSH2 0x3D5 DUP3 PUSH2 0x1AF JUMP JUMPDEST SWAP2 POP PUSH2 0x3E0 DUP4 PUSH2 0x1AF JUMP JUMPDEST SWAP3 POP DUP3 DUP3 ADD SWAP1 POP DUP1 DUP3 GT ISZERO PUSH2 0x3F8 JUMPI PUSH2 0x3F7 PUSH2 0x303 JUMP JUMPDEST JUMPDEST SWAP3 SWAP2 POP POP JUMP INVALID LOG2 PUSH5 0x6970667358 0x22 SLT KECCAK256 0x1F 0xCF PUSH24 0x679B383ADB4B962D1F3690A7C7DBD575A03B57041BA25881 0xAC BALANCE 0xDC 0xC6 0xFB PUSH5 0x736F6C6343 STOP ADDMOD OR STOP CALLER "
		},
		"gasEstimates": {
			"creation": {
				"codeDepositCost": "215200",
				"executionCost": "255",
				"totalCost": "215455"
			},
			"external": {
				"ehPar(uint256)": "infinite",
				"fatorial(uint256)": "infinite",
				"getResultado()": "2454",
				"sum(uint256,uint256)": "infinite"
			}
		},
		"methodIdentifiers": {
			"ehPar(uint256)": "12daf0e2",
			"fatorial(uint256)": "618d09bf",
			"getResultado()": "7a26d9d3",
			"sum(uint256,uint256)": "cad0899b"
		}
	},
	"abi": [
		{
			"anonymous": false,
			"inputs": [
				{
					"indexed": false,
					"internalType": "uint256",
					"name": "resultado",
					"type": "uint256"
				}
			],
			"name": "soma",
			"type": "event"
		},
		{
			"inputs": [
				{
					"internalType": "uint256",
					"name": "valor",
					"type": "uint256"
				}
			],
			"name": "ehPar",
			"outputs": [
				{
					"internalType": "bool",
					"name": "",
					"type": "bool"
				}
			],
			"stateMutability": "pure",
			"type": "function"
		},
		{
			"inputs": [
				{
					"internalType": "uint256",
					"name": "num",
					"type": "uint256"
				}
			],
			"name": "fatorial",
			"outputs": [
				{
					"internalType": "uint256",
					"name": "",
					"type": "uint256"
				}
			],
			"stateMutability": "pure",
			"type": "function"
		},
		{
			"inputs": [],
			"name": "getResultado",
			"outputs": [
				{
					"internalType": "uint256",
					"name": "",
					"type": "uint256"
				}
			],
			"stateMutability": "view",
			"type": "function"
		},
		{
			"inputs": [
				{
					"internalType": "uint256",
					"name": "valor1",
					"type": "uint256"
				},
				{
					"internalType": "uint256",
					"name": "valor2",
					"type": "uint256"
				}
			],
			"name": "sum",
			"outputs": [],
			"stateMutability": "nonpayable",
			"type": "function"
		}
	]
}